{
  "contractName": "travelPermit",
  "abi": [
    {
      "constant": true,
      "inputs": [
        {
          "name": "interfaceId",
          "type": "bytes4"
        }
      ],
      "name": "supportsInterface",
      "outputs": [
        {
          "name": "",
          "type": "bool"
        }
      ],
      "payable": false,
      "stateMutability": "view",
      "type": "function"
    },
    {
      "constant": true,
      "inputs": [],
      "name": "name",
      "outputs": [
        {
          "name": "",
          "type": "string"
        }
      ],
      "payable": false,
      "stateMutability": "view",
      "type": "function"
    },
    {
      "constant": true,
      "inputs": [
        {
          "name": "tokenId",
          "type": "uint256"
        }
      ],
      "name": "getApproved",
      "outputs": [
        {
          "name": "",
          "type": "address"
        }
      ],
      "payable": false,
      "stateMutability": "view",
      "type": "function"
    },
    {
      "constant": false,
      "inputs": [
        {
          "name": "to",
          "type": "address"
        },
        {
          "name": "tokenId",
          "type": "uint256"
        }
      ],
      "name": "approve",
      "outputs": [],
      "payable": false,
      "stateMutability": "nonpayable",
      "type": "function"
    },
    {
      "constant": true,
      "inputs": [],
      "name": "totalSupply",
      "outputs": [
        {
          "name": "",
          "type": "uint256"
        }
      ],
      "payable": false,
      "stateMutability": "view",
      "type": "function"
    },
    {
      "constant": false,
      "inputs": [
        {
          "name": "from",
          "type": "address"
        },
        {
          "name": "to",
          "type": "address"
        },
        {
          "name": "tokenId",
          "type": "uint256"
        }
      ],
      "name": "transferFrom",
      "outputs": [],
      "payable": false,
      "stateMutability": "nonpayable",
      "type": "function"
    },
    {
      "constant": true,
      "inputs": [
        {
          "name": "",
          "type": "address"
        }
      ],
      "name": "isAdmin",
      "outputs": [
        {
          "name": "",
          "type": "bool"
        }
      ],
      "payable": false,
      "stateMutability": "view",
      "type": "function"
    },
    {
      "constant": true,
      "inputs": [
        {
          "name": "",
          "type": "address"
        }
      ],
      "name": "userTravelCount",
      "outputs": [
        {
          "name": "",
          "type": "uint256"
        }
      ],
      "payable": false,
      "stateMutability": "view",
      "type": "function"
    },
    {
      "constant": true,
      "inputs": [
        {
          "name": "owner",
          "type": "address"
        },
        {
          "name": "index",
          "type": "uint256"
        }
      ],
      "name": "tokenOfOwnerByIndex",
      "outputs": [
        {
          "name": "",
          "type": "uint256"
        }
      ],
      "payable": false,
      "stateMutability": "view",
      "type": "function"
    },
    {
      "constant": true,
      "inputs": [
        {
          "name": "",
          "type": "address"
        },
        {
          "name": "",
          "type": "uint256"
        }
      ],
      "name": "userTravelPermits",
      "outputs": [
        {
          "name": "",
          "type": "uint256"
        }
      ],
      "payable": false,
      "stateMutability": "view",
      "type": "function"
    },
    {
      "constant": false,
      "inputs": [
        {
          "name": "from",
          "type": "address"
        },
        {
          "name": "to",
          "type": "address"
        },
        {
          "name": "tokenId",
          "type": "uint256"
        }
      ],
      "name": "safeTransferFrom",
      "outputs": [],
      "payable": false,
      "stateMutability": "nonpayable",
      "type": "function"
    },
    {
      "constant": true,
      "inputs": [
        {
          "name": "index",
          "type": "uint256"
        }
      ],
      "name": "tokenByIndex",
      "outputs": [
        {
          "name": "",
          "type": "uint256"
        }
      ],
      "payable": false,
      "stateMutability": "view",
      "type": "function"
    },
    {
      "constant": true,
      "inputs": [
        {
          "name": "tokenId",
          "type": "uint256"
        }
      ],
      "name": "ownerOf",
      "outputs": [
        {
          "name": "",
          "type": "address"
        }
      ],
      "payable": false,
      "stateMutability": "view",
      "type": "function"
    },
    {
      "constant": true,
      "inputs": [
        {
          "name": "",
          "type": "uint256"
        }
      ],
      "name": "travels",
      "outputs": [
        {
          "name": "addr",
          "type": "address"
        },
        {
          "name": "from",
          "type": "string"
        },
        {
          "name": "to",
          "type": "string"
        },
        {
          "name": "startTime",
          "type": "uint256"
        },
        {
          "name": "endTime",
          "type": "uint256"
        },
        {
          "name": "isApproved",
          "type": "bool"
        },
        {
          "name": "approveTime",
          "type": "uint256"
        },
        {
          "name": "id",
          "type": "uint256"
        }
      ],
      "payable": false,
      "stateMutability": "view",
      "type": "function"
    },
    {
      "constant": true,
      "inputs": [
        {
          "name": "owner",
          "type": "address"
        }
      ],
      "name": "balanceOf",
      "outputs": [
        {
          "name": "",
          "type": "uint256"
        }
      ],
      "payable": false,
      "stateMutability": "view",
      "type": "function"
    },
    {
      "constant": true,
      "inputs": [],
      "name": "symbol",
      "outputs": [
        {
          "name": "",
          "type": "string"
        }
      ],
      "payable": false,
      "stateMutability": "view",
      "type": "function"
    },
    {
      "constant": false,
      "inputs": [
        {
          "name": "to",
          "type": "address"
        },
        {
          "name": "approved",
          "type": "bool"
        }
      ],
      "name": "setApprovalForAll",
      "outputs": [],
      "payable": false,
      "stateMutability": "nonpayable",
      "type": "function"
    },
    {
      "constant": false,
      "inputs": [
        {
          "name": "from",
          "type": "address"
        },
        {
          "name": "to",
          "type": "address"
        },
        {
          "name": "tokenId",
          "type": "uint256"
        },
        {
          "name": "_data",
          "type": "bytes"
        }
      ],
      "name": "safeTransferFrom",
      "outputs": [],
      "payable": false,
      "stateMutability": "nonpayable",
      "type": "function"
    },
    {
      "constant": true,
      "inputs": [
        {
          "name": "tokenId",
          "type": "uint256"
        }
      ],
      "name": "tokenURI",
      "outputs": [
        {
          "name": "",
          "type": "string"
        }
      ],
      "payable": false,
      "stateMutability": "view",
      "type": "function"
    },
    {
      "constant": true,
      "inputs": [
        {
          "name": "",
          "type": "address"
        }
      ],
      "name": "isMaintainer",
      "outputs": [
        {
          "name": "",
          "type": "bool"
        }
      ],
      "payable": false,
      "stateMutability": "view",
      "type": "function"
    },
    {
      "constant": true,
      "inputs": [
        {
          "name": "owner",
          "type": "address"
        },
        {
          "name": "operator",
          "type": "address"
        }
      ],
      "name": "isApprovedForAll",
      "outputs": [
        {
          "name": "",
          "type": "bool"
        }
      ],
      "payable": false,
      "stateMutability": "view",
      "type": "function"
    },
    {
      "inputs": [],
      "payable": false,
      "stateMutability": "nonpayable",
      "type": "constructor"
    },
    {
      "anonymous": false,
      "inputs": [
        {
          "indexed": false,
          "name": "_addr",
          "type": "address"
        },
        {
          "indexed": false,
          "name": "origin",
          "type": "string"
        },
        {
          "indexed": false,
          "name": "to",
          "type": "string"
        },
        {
          "indexed": false,
          "name": "start",
          "type": "uint256"
        },
        {
          "indexed": false,
          "name": "end",
          "type": "uint256"
        }
      ],
      "name": "travelRequest",
      "type": "event"
    },
    {
      "anonymous": false,
      "inputs": [
        {
          "indexed": false,
          "name": "travelId",
          "type": "uint256"
        },
        {
          "indexed": false,
          "name": "authorizationAddr",
          "type": "address"
        }
      ],
      "name": "travelAccepted",
      "type": "event"
    },
    {
      "anonymous": false,
      "inputs": [
        {
          "indexed": true,
          "name": "from",
          "type": "address"
        },
        {
          "indexed": true,
          "name": "to",
          "type": "address"
        },
        {
          "indexed": true,
          "name": "tokenId",
          "type": "uint256"
        }
      ],
      "name": "Transfer",
      "type": "event"
    },
    {
      "anonymous": false,
      "inputs": [
        {
          "indexed": true,
          "name": "owner",
          "type": "address"
        },
        {
          "indexed": true,
          "name": "approved",
          "type": "address"
        },
        {
          "indexed": true,
          "name": "tokenId",
          "type": "uint256"
        }
      ],
      "name": "Approval",
      "type": "event"
    },
    {
      "anonymous": false,
      "inputs": [
        {
          "indexed": true,
          "name": "owner",
          "type": "address"
        },
        {
          "indexed": true,
          "name": "operator",
          "type": "address"
        },
        {
          "indexed": false,
          "name": "approved",
          "type": "bool"
        }
      ],
      "name": "ApprovalForAll",
      "type": "event"
    },
    {
      "constant": false,
      "inputs": [
        {
          "name": "_addr",
          "type": "address"
        },
        {
          "name": "from",
          "type": "string"
        },
        {
          "name": "to",
          "type": "string"
        },
        {
          "name": "startTime",
          "type": "uint256"
        },
        {
          "name": "endTime",
          "type": "uint256"
        }
      ],
      "name": "requestPermission",
      "outputs": [],
      "payable": false,
      "stateMutability": "nonpayable",
      "type": "function"
    },
    {
      "constant": false,
      "inputs": [
        {
          "name": "_addr",
          "type": "address"
        },
        {
          "name": "approved",
          "type": "bool"
        }
      ],
      "name": "guardianApproval",
      "outputs": [],
      "payable": false,
      "stateMutability": "nonpayable",
      "type": "function"
    },
    {
      "constant": false,
      "inputs": [
        {
          "name": "id",
          "type": "uint256"
        }
      ],
      "name": "approveTravel",
      "outputs": [],
      "payable": false,
      "stateMutability": "nonpayable",
      "type": "function"
    },
    {
      "constant": true,
      "inputs": [
        {
          "name": "_id",
          "type": "uint256"
        }
      ],
      "name": "checkApproval",
      "outputs": [
        {
          "name": "",
          "type": "bool"
        }
      ],
      "payable": false,
      "stateMutability": "view",
      "type": "function"
    },
    {
      "constant": true,
      "inputs": [
        {
          "name": "_id",
          "type": "uint256"
        }
      ],
      "name": "checkPermit",
      "outputs": [
        {
          "name": "",
          "type": "bool"
        }
      ],
      "payable": false,
      "stateMutability": "view",
      "type": "function"
    },
    {
      "constant": true,
      "inputs": [
        {
          "name": "_id",
          "type": "uint256"
        }
      ],
      "name": "permitInfo",
      "outputs": [
        {
          "components": [
            {
              "name": "addr",
              "type": "address"
            },
            {
              "name": "from",
              "type": "string"
            },
            {
              "name": "to",
              "type": "string"
            },
            {
              "name": "startTime",
              "type": "uint256"
            },
            {
              "name": "endTime",
              "type": "uint256"
            },
            {
              "name": "isApproved",
              "type": "bool"
            },
            {
              "name": "approveTime",
              "type": "uint256"
            },
            {
              "name": "id",
              "type": "uint256"
            }
          ],
          "name": "",
          "type": "tuple"
        }
      ],
      "payable": false,
      "stateMutability": "view",
      "type": "function"
    },
    {
      "constant": true,
      "inputs": [
        {
          "name": "_addr",
          "type": "address"
        }
      ],
      "name": "returnTravelCount",
      "outputs": [
        {
          "name": "",
          "type": "uint256"
        }
      ],
      "payable": false,
      "stateMutability": "view",
      "type": "function"
    },
    {
      "constant": false,
      "inputs": [
        {
          "name": "_addr",
          "type": "address"
        },
        {
          "name": "status",
          "type": "bool"
        },
        {
          "name": "role",
          "type": "uint256"
        }
      ],
      "name": "grantPermission",
      "outputs": [],
      "payable": false,
      "stateMutability": "nonpayable",
      "type": "function"
    },
    {
      "constant": true,
      "inputs": [],
      "name": "userRole",
      "outputs": [
        {
          "name": "",
          "type": "uint256"
        }
      ],
      "payable": false,
      "stateMutability": "view",
      "type": "function"
    },
    {
      "constant": true,
      "inputs": [],
      "name": "travelArray",
      "outputs": [
        {
          "name": "",
          "type": "uint256[]"
        }
      ],
      "payable": false,
      "stateMutability": "view",
      "type": "function"
    },
    {
      "constant": true,
      "inputs": [
        {
          "name": "id",
          "type": "uint256"
        }
      ],
      "name": "userTravel",
      "outputs": [
        {
          "components": [
            {
              "name": "addr",
              "type": "address"
            },
            {
              "name": "from",
              "type": "string"
            },
            {
              "name": "to",
              "type": "string"
            },
            {
              "name": "startTime",
              "type": "uint256"
            },
            {
              "name": "endTime",
              "type": "uint256"
            },
            {
              "name": "isApproved",
              "type": "bool"
            },
            {
              "name": "approveTime",
              "type": "uint256"
            },
            {
              "name": "id",
              "type": "uint256"
            }
          ],
          "name": "",
          "type": "tuple"
        }
      ],
      "payable": false,
      "stateMutability": "view",
      "type": "function"
    }
  ],
  "bytecode": "0x60806040526000600c553480156200001657600080fd5b506040805190810160405280600681526020017f54726176656c00000000000000000000000000000000000000000000000000008152506040805190810160405280600481526020017f5452564c000000000000000000000000000000000000000000000000000000008152508181620000c26301ffc9a77c01000000000000000000000000000000000000000000000000000000000262000221640100000000026401000000009004565b620000ff6380ac58cd7c01000000000000000000000000000000000000000000000000000000000262000221640100000000026401000000009004565b6200013c63780e9d637c01000000000000000000000000000000000000000000000000000000000262000221640100000000026401000000009004565b81600990805190602001906200015492919062000317565b5080600a90805190602001906200016d92919062000317565b50620001ab635b5e139f7c01000000000000000000000000000000000000000000000000000000000262000221640100000000026401000000009004565b5050505060016010600073b6d5033ff68ca514054ad8a85df4da2c4a63111273ffffffffffffffffffffffffffffffffffffffff1673ffffffffffffffffffffffffffffffffffffffff16815260200190815260200160002060006101000a81548160ff0219169083151502179055506200041f565b63ffffffff7c010000000000000000000000000000000000000000000000000000000002817bffffffffffffffffffffffffffffffffffffffffffffffffffffffff191614151515620002ab576040517f08c379a0000000000000000000000000000000000000000000000000000000008152600401620002a290620003fd565b60405180910390fd5b6001600080837bffffffffffffffffffffffffffffffffffffffffffffffffffffffff19167bffffffffffffffffffffffffffffffffffffffffffffffffffffffff1916815260200190815260200160002060006101000a81548160ff02191690831515021790555050565b828054600181600116156101000203166002900490600052602060002090601f016020900481019282601f106200035a57805160ff19168380011785556200038b565b828001600101855582156200038b579182015b828111156200038a5782518255916020019190600101906200036d565b5b5090506200039a91906200039e565b5090565b620003c391905b80821115620003bf576000816000905550600101620003a5565b5090565b90565b6000601c82527f4552433136353a20696e76616c696420696e74657266616365206964000000006020830152604082019050919050565b600060208201905081810360008301526200041881620003c6565b9050919050565b614907806200042f6000396000f3fe608060405260043610610196576000357c0100000000000000000000000000000000000000000000000000000000900463ffffffff16806301b701621461019b57806301ffc9a7146101c657806306fdde0314610203578063081812fc1461022e578063095ea7b31461026b5780630a56f92a1461029457806318160ddd146102d157806323b872dd146102fc57806324d7806c146103255780632c6bba1b146103625780632f745c591461039f5780633a96be7b146103dc57806342842e0e14610419578063455b1087146104425780634f6ccce71461047f5780635eec8875146104bc5780636352211e146104e5578063637385551461052257806367a720661461056657806370a08231146105a357806372e0d81a146105e0578063922367391461060957806395d89b41146106465780639a01d87514610671578063a22cb4651461069c578063a97a5a44146106c5578063b88d4fde146106ee578063c1f352bd14610717578063c87b56dd14610740578063dd57366a1461077d578063e985e9c5146107ba578063fea21ce5146107f7575b600080fd5b3480156101a757600080fd5b506101b0610834565b6040516101bd9190614699565b60405180910390f35b3480156101d257600080fd5b506101ed60048036036101e89190810190613680565b6108f4565b6040516101fa91906142da565b60405180910390f35b34801561020f57600080fd5b5061021861095b565b60405161022591906142f5565b60405180910390f35b34801561023a57600080fd5b50610255600480360361025091908101906136d2565b6109fd565b6040516102629190614164565b60405180910390f35b34801561027757600080fd5b50610292600480360361028d9190810190613644565b610a84565b005b3480156102a057600080fd5b506102bb60048036036102b691908101906136d2565b610c35565b6040516102c89190614677565b60405180910390f35b3480156102dd57600080fd5b506102e6610e97565b6040516102f39190614699565b60405180910390f35b34801561030857600080fd5b50610323600480360361031e9190810190613448565b610ea4565b005b34801561033157600080fd5b5061034c600480360361034791908101906133e3565b610eff565b60405161035991906142da565b60405180910390f35b34801561036e57600080fd5b50610389600480360361038491908101906133e3565b610f1f565b6040516103969190614699565b60405180910390f35b3480156103ab57600080fd5b506103c660048036036103c19190810190613644565b610f37565b6040516103d39190614699565b60405180910390f35b3480156103e857600080fd5b5061040360048036036103fe9190810190613644565b610fe4565b6040516104109190614699565b60405180910390f35b34801561042557600080fd5b50610440600480360361043b9190810190613448565b611014565b005b34801561044e57600080fd5b50610469600480360361046491908101906136d2565b611035565b6040516104769190614677565b60405180910390f35b34801561048b57600080fd5b506104a660048036036104a191908101906136d2565b61142c565b6040516104b39190614699565b60405180910390f35b3480156104c857600080fd5b506104e360048036036104de919081019061359d565b61149a565b005b3480156104f157600080fd5b5061050c600480360361050791908101906136d2565b611808565b6040516105199190614164565b60405180910390f35b34801561052e57600080fd5b50610549600480360361054491908101906136d2565b6118bc565b60405161055d98979695949392919061422c565b60405180910390f35b34801561057257600080fd5b5061058d600480360361058891908101906133e3565b611a61565b60405161059a9190614699565b60405180910390f35b3480156105af57600080fd5b506105ca60048036036105c591908101906133e3565b611b1a565b6040516105d79190614699565b60405180910390f35b3480156105ec57600080fd5b50610607600480360361060291908101906136d2565b611bdb565b005b34801561061557600080fd5b50610630600480360361062b91908101906136d2565b611cef565b60405161063d91906142da565b60405180910390f35b34801561065257600080fd5b5061065b611eda565b60405161066891906142f5565b60405180910390f35b34801561067d57600080fd5b50610686611f7c565b60405161069391906142b8565b60405180910390f35b3480156106a857600080fd5b506106c360048036036106be9190810190613512565b612011565b005b3480156106d157600080fd5b506106ec60048036036106e79190810190613512565b61217f565b005b3480156106fa57600080fd5b5061071560048036036107109190810190613497565b6121c8565b005b34801561072357600080fd5b5061073e6004803603610739919081019061354e565b612226565b005b34801561074c57600080fd5b50610767600480360361076291908101906136d2565b612389565b60405161077491906142f5565b60405180910390f35b34801561078957600080fd5b506107a4600480360361079f91908101906133e3565b612488565b6040516107b191906142da565b60405180910390f35b3480156107c657600080fd5b506107e160048036036107dc919081019061340c565b6124a8565b6040516107ee91906142da565b60405180910390f35b34801561080357600080fd5b5061081e600480360361081991908101906136d2565b61253c565b60405161082b91906142da565b60405180910390f35b6000601060003373ffffffffffffffffffffffffffffffffffffffff1673ffffffffffffffffffffffffffffffffffffffff16815260200190815260200160002060009054906101000a900460ff161561089157600090506108f1565b601160003373ffffffffffffffffffffffffffffffffffffffff1673ffffffffffffffffffffffffffffffffffffffff16815260200190815260200160002060009054906101000a900460ff16156108ec57600190506108f1565b600290505b90565b6000806000837bffffffffffffffffffffffffffffffffffffffffffffffffffffffff19167bffffffffffffffffffffffffffffffffffffffffffffffffffffffff1916815260200190815260200160002060009054906101000a900460ff169050919050565b606060098054600181600116156101000203166002900480601f0160208091040260200160405190810160405280929190818152602001828054600181600116156101000203166002900480156109f35780601f106109c8576101008083540402835291602001916109f3565b820191906000526020600020905b8154815290600101906020018083116109d657829003601f168201915b5050505050905090565b6000610a08826126aa565b1515610a49576040517f08c379a0000000000000000000000000000000000000000000000000000000008152600401610a4090614517565b60405180910390fd5b6002600083815260200190815260200160002060009054906101000a900473ffffffffffffffffffffffffffffffffffffffff169050919050565b6000610a8f82611808565b90508073ffffffffffffffffffffffffffffffffffffffff168373ffffffffffffffffffffffffffffffffffffffff1614151515610b02576040517f08c379a0000000000000000000000000000000000000000000000000000000008152600401610af990614597565b60405180910390fd5b8073ffffffffffffffffffffffffffffffffffffffff163373ffffffffffffffffffffffffffffffffffffffff161480610b425750610b4181336124a8565b5b1515610b83576040517f08c379a0000000000000000000000000000000000000000000000000000000008152600401610b7a90614477565b60405180910390fd5b826002600084815260200190815260200160002060006101000a81548173ffffffffffffffffffffffffffffffffffffffff021916908373ffffffffffffffffffffffffffffffffffffffff160217905550818373ffffffffffffffffffffffffffffffffffffffff168273ffffffffffffffffffffffffffffffffffffffff167f8c5be1e5ebec7d5bd14f71427d1e84f3dd0314c0f7b2291e5b200ac8c7c3b92560405160405180910390a4505050565b610c3d6131a4565b600d6000600e60003373ffffffffffffffffffffffffffffffffffffffff1673ffffffffffffffffffffffffffffffffffffffff16815260200190815260200160002084815481101515610c8d57fe5b9060005260206000200154815260200190815260200160002061010060405190810160405290816000820160009054906101000a900473ffffffffffffffffffffffffffffffffffffffff1673ffffffffffffffffffffffffffffffffffffffff1673ffffffffffffffffffffffffffffffffffffffff168152602001600182018054600181600116156101000203166002900480601f016020809104026020016040519081016040528092919081815260200182805460018160011615610100020316600290048015610da25780601f10610d7757610100808354040283529160200191610da2565b820191906000526020600020905b815481529060010190602001808311610d8557829003601f168201915b50505050508152602001600282018054600181600116156101000203166002900480601f016020809104026020016040519081016040528092919081815260200182805460018160011615610100020316600290048015610e445780601f10610e1957610100808354040283529160200191610e44565b820191906000526020600020905b815481529060010190602001808311610e2757829003601f168201915b5050505050815260200160038201548152602001600482015481526020016005820160009054906101000a900460ff16151515158152602001600682015481526020016007820154815250509050919050565b6000600780549050905090565b610eae338261271c565b1515610eef576040517f08c379a0000000000000000000000000000000000000000000000000000000008152600401610ee6906145b7565b60405180910390fd5b610efa8383836127fc565b505050565b60106020528060005260406000206000915054906101000a900460ff1681565b600f6020528060005260406000206000915090505481565b6000610f4283611b1a565b82101515610f85576040517f08c379a0000000000000000000000000000000000000000000000000000000008152600401610f7c90614337565b60405180910390fd5b600560008473ffffffffffffffffffffffffffffffffffffffff1673ffffffffffffffffffffffffffffffffffffffff16815260200190815260200160002082815481101515610fd157fe5b9060005260206000200154905092915050565b600e60205281600052604060002081815481101515610fff57fe5b90600052602060002001600091509150505481565b61103083838360206040519081016040528060008152506121c8565b505050565b61103d6131a4565b600c548211151515611084576040517f08c379a000000000000000000000000000000000000000000000000000000000815260040161107b90614577565b60405180910390fd5b601160003373ffffffffffffffffffffffffffffffffffffffff1673ffffffffffffffffffffffffffffffffffffffff16815260200190815260200160002060009054906101000a900460ff168061113d57503373ffffffffffffffffffffffffffffffffffffffff16600d600084815260200190815260200160002060000160009054906101000a900473ffffffffffffffffffffffffffffffffffffffff1673ffffffffffffffffffffffffffffffffffffffff16145b806111915750601060003373ffffffffffffffffffffffffffffffffffffffff1673ffffffffffffffffffffffffffffffffffffffff16815260200190815260200160002060009054906101000a900460ff165b15156111d2576040517f08c379a00000000000000000000000000000000000000000000000000000000081526004016111c990614617565b60405180910390fd5b600d6000600e60003373ffffffffffffffffffffffffffffffffffffffff1673ffffffffffffffffffffffffffffffffffffffff1681526020019081526020016000208481548110151561122257fe5b9060005260206000200154815260200190815260200160002061010060405190810160405290816000820160009054906101000a900473ffffffffffffffffffffffffffffffffffffffff1673ffffffffffffffffffffffffffffffffffffffff1673ffffffffffffffffffffffffffffffffffffffff168152602001600182018054600181600116156101000203166002900480601f0160208091040260200160405190810160405280929190818152602001828054600181600116156101000203166002900480156113375780601f1061130c57610100808354040283529160200191611337565b820191906000526020600020905b81548152906001019060200180831161131a57829003601f168201915b50505050508152602001600282018054600181600116156101000203166002900480601f0160208091040260200160405190810160405280929190818152602001828054600181600116156101000203166002900480156113d95780601f106113ae576101008083540402835291602001916113d9565b820191906000526020600020905b8154815290600101906020018083116113bc57829003601f168201915b5050505050815260200160038201548152602001600482015481526020016005820160009054906101000a900460ff16151515158152602001600682015481526020016007820154815250509050919050565b6000611436610e97565b82101515611479576040517f08c379a0000000000000000000000000000000000000000000000000000000008152600401611470906145d7565b60405180910390fd5b60078281548110151561148857fe5b90600052602060002001549050919050565b3373ffffffffffffffffffffffffffffffffffffffff168573ffffffffffffffffffffffffffffffffffffffff1614806114da57506114d985336124a8565b5b151561151b576040517f08c379a0000000000000000000000000000000000000000000000000000000008152600401611512906145f7565b60405180910390fd5b6000821015801561152d575060008110155b151561156e576040517f08c379a000000000000000000000000000000000000000000000000000000000815260040161156590614657565b60405180910390fd5b80821015156115b2576040517f08c379a00000000000000000000000000000000000000000000000000000000081526004016115a9906144d7565b60405180910390fd5b610100604051908101604052808673ffffffffffffffffffffffffffffffffffffffff16815260200185815260200184815260200183815260200182815260200160001515815260200160008152602001600c54815250600d6000600c54815260200190815260200160002060008201518160000160006101000a81548173ffffffffffffffffffffffffffffffffffffffff021916908373ffffffffffffffffffffffffffffffffffffffff1602179055506020820151816001019080519060200190611681929190613202565b50604082015181600201908051906020019061169e929190613202565b50606082015181600301556080820151816004015560a08201518160050160006101000a81548160ff02191690831515021790555060c0820151816006015560e082015181600701559050506116f633600c54612820565b600e60008673ffffffffffffffffffffffffffffffffffffffff1673ffffffffffffffffffffffffffffffffffffffff168152602001908152602001600020600c549080600181540180825580915050906001820390600052602060002001600090919290919091505550600f60008673ffffffffffffffffffffffffffffffffffffffff1673ffffffffffffffffffffffffffffffffffffffff16815260200190815260200160002060008154809291906001019190505550600c600081548092919060010191905055507f2c2ccc575a588f4195d3925b4b7a502f14341fd6d370613477fef39f4cde629685858585856040516117f99594939291906141cb565b60405180910390a15050505050565b6000806001600084815260200190815260200160002060009054906101000a900473ffffffffffffffffffffffffffffffffffffffff169050600073ffffffffffffffffffffffffffffffffffffffff168173ffffffffffffffffffffffffffffffffffffffff16141515156118b3576040517f08c379a00000000000000000000000000000000000000000000000000000000081526004016118aa906144b7565b60405180910390fd5b80915050919050565b600d6020528060005260406000206000915090508060000160009054906101000a900473ffffffffffffffffffffffffffffffffffffffff1690806001018054600181600116156101000203166002900480601f01602080910402602001604051908101604052809291908181526020018280546001816001161561010002031660029004801561198e5780601f106119635761010080835404028352916020019161198e565b820191906000526020600020905b81548152906001019060200180831161197157829003601f168201915b505050505090806002018054600181600116156101000203166002900480601f016020809104026020016040519081016040528092919081815260200182805460018160011615610100020316600290048015611a2c5780601f10611a0157610100808354040283529160200191611a2c565b820191906000526020600020905b815481529060010190602001808311611a0f57829003601f168201915b5050505050908060030154908060040154908060050160009054906101000a900460ff16908060060154908060070154905088565b60003373ffffffffffffffffffffffffffffffffffffffff168273ffffffffffffffffffffffffffffffffffffffff16141515611ad3576040517f08c379a0000000000000000000000000000000000000000000000000000000008152600401611aca90614317565b60405180910390fd5b600f60003373ffffffffffffffffffffffffffffffffffffffff1673ffffffffffffffffffffffffffffffffffffffff168152602001908152602001600020549050919050565b60008073ffffffffffffffffffffffffffffffffffffffff168273ffffffffffffffffffffffffffffffffffffffff1614151515611b8d576040517f08c379a0000000000000000000000000000000000000000000000000000000008152600401611b8490614497565b60405180910390fd5b611bd4600360008473ffffffffffffffffffffffffffffffffffffffff1673ffffffffffffffffffffffffffffffffffffffff168152602001908152602001600020612841565b9050919050565b601060003373ffffffffffffffffffffffffffffffffffffffff1673ffffffffffffffffffffffffffffffffffffffff16815260200190815260200160002060009054906101000a900460ff161515611c69576040517f08c379a0000000000000000000000000000000000000000000000000000000008152600401611c6090614397565b60405180910390fd5b6001600d600083815260200190815260200160002060050160006101000a81548160ff02191690831515021790555042600d6000838152602001908152602001600020600601819055507f507d127d9fe5c43fe055774b07999ab87122541e0959ad8d1b4216e91901647c8133604051611ce49291906146b4565b60405180910390a150565b6000600c548211151515611d38576040517f08c379a0000000000000000000000000000000000000000000000000000000008152600401611d2f90614577565b60405180910390fd5b601160003373ffffffffffffffffffffffffffffffffffffffff1673ffffffffffffffffffffffffffffffffffffffff16815260200190815260200160002060009054906101000a900460ff1680611df157503373ffffffffffffffffffffffffffffffffffffffff16600d600084815260200190815260200160002060000160009054906101000a900473ffffffffffffffffffffffffffffffffffffffff1673ffffffffffffffffffffffffffffffffffffffff16145b1515611e32576040517f08c379a0000000000000000000000000000000000000000000000000000000008152600401611e2990614637565b60405180910390fd5b42600d60008481526020019081526020016000206003015411158015611e6e5750600d6000838152602001908152602001600020600401544211155b1515611eaf576040517f08c379a0000000000000000000000000000000000000000000000000000000008152600401611ea690614357565b60405180910390fd5b600d600083815260200190815260200160002060050160009054906101000a900460ff169050919050565b6060600a8054600181600116156101000203166002900480601f016020809104026020016040519081016040528092919081815260200182805460018160011615610100020316600290048015611f725780601f10611f4757610100808354040283529160200191611f72565b820191906000526020600020905b815481529060010190602001808311611f5557829003601f168201915b5050505050905090565b6060600e60003373ffffffffffffffffffffffffffffffffffffffff1673ffffffffffffffffffffffffffffffffffffffff16815260200190815260200160002080548060200260200160405190810160405280929190818152602001828054801561200757602002820191906000526020600020905b815481526020019060010190808311611ff3575b5050505050905090565b3373ffffffffffffffffffffffffffffffffffffffff168273ffffffffffffffffffffffffffffffffffffffff1614151515612082576040517f08c379a0000000000000000000000000000000000000000000000000000000008152600401612079906143f7565b60405180910390fd5b80600460003373ffffffffffffffffffffffffffffffffffffffff1673ffffffffffffffffffffffffffffffffffffffff16815260200190815260200160002060008473ffffffffffffffffffffffffffffffffffffffff1673ffffffffffffffffffffffffffffffffffffffff16815260200190815260200160002060006101000a81548160ff0219169083151502179055508173ffffffffffffffffffffffffffffffffffffffff163373ffffffffffffffffffffffffffffffffffffffff167f17307eab39ab6107e8899845ad3d59bd9653f200f220920489ca2b5937696c318360405161217391906142da565b60405180910390a35050565b8173ffffffffffffffffffffffffffffffffffffffff163373ffffffffffffffffffffffffffffffffffffffff16141515156121ba57600080fd5b6121c48282612011565b5050565b6121d3848484610ea4565b6121df8484848461284f565b1515612220576040517f08c379a000000000000000000000000000000000000000000000000000000000815260040161221790614377565b60405180910390fd5b50505050565b601060003373ffffffffffffffffffffffffffffffffffffffff1673ffffffffffffffffffffffffffffffffffffffff16815260200190815260200160002060009054906101000a900460ff1615156122b4576040517f08c379a00000000000000000000000000000000000000000000000000000000081526004016122ab90614397565b60405180910390fd5b60008114156123195781601060008573ffffffffffffffffffffffffffffffffffffffff1673ffffffffffffffffffffffffffffffffffffffff16815260200190815260200160002060006101000a81548160ff021916908315150217905550612384565b600181141561237e5781601160008573ffffffffffffffffffffffffffffffffffffffff1673ffffffffffffffffffffffffffffffffffffffff16815260200190815260200160002060006101000a81548160ff021916908315150217905550612383565b600080fd5b5b505050565b6060612394826126aa565b15156123d5576040517f08c379a00000000000000000000000000000000000000000000000000000000081526004016123cc90614557565b60405180910390fd5b600b60008381526020019081526020016000208054600181600116156101000203166002900480601f01602080910402602001604051908101604052809291908181526020018280546001816001161561010002031660029004801561247c5780601f106124515761010080835404028352916020019161247c565b820191906000526020600020905b81548152906001019060200180831161245f57829003601f168201915b50505050509050919050565b60116020528060005260406000206000915054906101000a900460ff1681565b6000600460008473ffffffffffffffffffffffffffffffffffffffff1673ffffffffffffffffffffffffffffffffffffffff16815260200190815260200160002060008373ffffffffffffffffffffffffffffffffffffffff1673ffffffffffffffffffffffffffffffffffffffff16815260200190815260200160002060009054906101000a900460ff16905092915050565b6000600c548211151515612585576040517f08c379a000000000000000000000000000000000000000000000000000000000815260040161257c90614577565b60405180910390fd5b601160003373ffffffffffffffffffffffffffffffffffffffff1673ffffffffffffffffffffffffffffffffffffffff16815260200190815260200160002060009054906101000a900460ff168061263e57503373ffffffffffffffffffffffffffffffffffffffff16600d600084815260200190815260200160002060000160009054906101000a900473ffffffffffffffffffffffffffffffffffffffff1673ffffffffffffffffffffffffffffffffffffffff16145b151561267f576040517f08c379a000000000000000000000000000000000000000000000000000000000815260040161267690614437565b60405180910390fd5b600d600083815260200190815260200160002060050160009054906101000a900460ff169050919050565b6000806001600084815260200190815260200160002060009054906101000a900473ffffffffffffffffffffffffffffffffffffffff169050600073ffffffffffffffffffffffffffffffffffffffff168173ffffffffffffffffffffffffffffffffffffffff161415915050919050565b6000612727826126aa565b1515612768576040517f08c379a000000000000000000000000000000000000000000000000000000000815260040161275f90614457565b60405180910390fd5b600061277383611808565b90508073ffffffffffffffffffffffffffffffffffffffff168473ffffffffffffffffffffffffffffffffffffffff1614806127e257508373ffffffffffffffffffffffffffffffffffffffff166127ca846109fd565b73ffffffffffffffffffffffffffffffffffffffff16145b806127f357506127f281856124a8565b5b91505092915050565b6128078383836129a0565b6128118382612bd3565b61281b8282612d77565b505050565b61282a8282612e3e565b6128348282612d77565b61283d81612ff4565b5050565b600081600001549050919050565b60006128708473ffffffffffffffffffffffffffffffffffffffff16613040565b151561287f5760019050612998565b60008473ffffffffffffffffffffffffffffffffffffffff1663150b7a02338887876040518563ffffffff167c01000000000000000000000000000000000000000000000000000000000281526004016128dc949392919061417f565b602060405180830381600087803b1580156128f657600080fd5b505af115801561290a573d6000803e3d6000fd5b505050506040513d601f19601f8201168201806040525061292e91908101906136a9565b905063150b7a027c0100000000000000000000000000000000000000000000000000000000027bffffffffffffffffffffffffffffffffffffffffffffffffffffffff1916817bffffffffffffffffffffffffffffffffffffffffffffffffffffffff1916149150505b949350505050565b8273ffffffffffffffffffffffffffffffffffffffff166129c082611808565b73ffffffffffffffffffffffffffffffffffffffff16141515612a18576040517f08c379a0000000000000000000000000000000000000000000000000000000008152600401612a0f90614537565b60405180910390fd5b600073ffffffffffffffffffffffffffffffffffffffff168273ffffffffffffffffffffffffffffffffffffffff1614151515612a8a576040517f08c379a0000000000000000000000000000000000000000000000000000000008152600401612a81906143d7565b60405180910390fd5b612a9381613053565b612ada600360008573ffffffffffffffffffffffffffffffffffffffff1673ffffffffffffffffffffffffffffffffffffffff168152602001908152602001600020613113565b612b21600360008473ffffffffffffffffffffffffffffffffffffffff1673ffffffffffffffffffffffffffffffffffffffff168152602001908152602001600020613136565b816001600083815260200190815260200160002060006101000a81548173ffffffffffffffffffffffffffffffffffffffff021916908373ffffffffffffffffffffffffffffffffffffffff160217905550808273ffffffffffffffffffffffffffffffffffffffff168473ffffffffffffffffffffffffffffffffffffffff167fddf252ad1be2c89b69c2b068fc378daa952ba7f163c4a11628f55a4df523b3ef60405160405180910390a4505050565b6000612c2b6001600560008673ffffffffffffffffffffffffffffffffffffffff1673ffffffffffffffffffffffffffffffffffffffff1681526020019081526020016000208054905061314c90919063ffffffff16565b90506000600660008481526020019081526020016000205490508181141515612d1e576000600560008673ffffffffffffffffffffffffffffffffffffffff1673ffffffffffffffffffffffffffffffffffffffff16815260200190815260200160002083815481101515612c9c57fe5b9060005260206000200154905080600560008773ffffffffffffffffffffffffffffffffffffffff1673ffffffffffffffffffffffffffffffffffffffff16815260200190815260200160002083815481101515612cf657fe5b9060005260206000200181905550816006600083815260200190815260200160002081905550505b600560008573ffffffffffffffffffffffffffffffffffffffff1673ffffffffffffffffffffffffffffffffffffffff168152602001908152602001600020805480919060019003612d709190613282565b5050505050565b600560008373ffffffffffffffffffffffffffffffffffffffff1673ffffffffffffffffffffffffffffffffffffffff168152602001908152602001600020805490506006600083815260200190815260200160002081905550600560008373ffffffffffffffffffffffffffffffffffffffff1673ffffffffffffffffffffffffffffffffffffffff1681526020019081526020016000208190806001815401808255809150509060018203906000526020600020016000909192909190915055505050565b600073ffffffffffffffffffffffffffffffffffffffff168273ffffffffffffffffffffffffffffffffffffffff1614151515612eb0576040517f08c379a0000000000000000000000000000000000000000000000000000000008152600401612ea7906144f7565b60405180910390fd5b612eb9816126aa565b151515612efb576040517f08c379a0000000000000000000000000000000000000000000000000000000008152600401612ef2906143b7565b60405180910390fd5b816001600083815260200190815260200160002060006101000a81548173ffffffffffffffffffffffffffffffffffffffff021916908373ffffffffffffffffffffffffffffffffffffffff160217905550612f94600360008473ffffffffffffffffffffffffffffffffffffffff1673ffffffffffffffffffffffffffffffffffffffff168152602001908152602001600020613136565b808273ffffffffffffffffffffffffffffffffffffffff16600073ffffffffffffffffffffffffffffffffffffffff167fddf252ad1be2c89b69c2b068fc378daa952ba7f163c4a11628f55a4df523b3ef60405160405180910390a45050565b6007805490506008600083815260200190815260200160002081905550600781908060018154018082558091505090600182039060005260206000200160009091929091909150555050565b600080823b905060008111915050919050565b600073ffffffffffffffffffffffffffffffffffffffff166002600083815260200190815260200160002060009054906101000a900473ffffffffffffffffffffffffffffffffffffffff1673ffffffffffffffffffffffffffffffffffffffff161415156131105760006002600083815260200190815260200160002060006101000a81548173ffffffffffffffffffffffffffffffffffffffff021916908373ffffffffffffffffffffffffffffffffffffffff1602179055505b50565b61312b6001826000015461314c90919063ffffffff16565b816000018190555050565b6001816000016000828254019250508190555050565b6000828211151515613193576040517f08c379a000000000000000000000000000000000000000000000000000000000815260040161318a90614417565b60405180910390fd5b600082840390508091505092915050565b61010060405190810160405280600073ffffffffffffffffffffffffffffffffffffffff1681526020016060815260200160608152602001600081526020016000815260200160001515815260200160008152602001600081525090565b828054600181600116156101000203166002900490600052602060002090601f016020900481019282601f1061324357805160ff1916838001178555613271565b82800160010185558215613271579182015b82811115613270578251825591602001919060010190613255565b5b50905061327e91906132ae565b5090565b8154818355818111156132a9578183600052602060002091820191016132a891906132ae565b5b505050565b6132d091905b808211156132cc5760008160009055506001016132b4565b5090565b90565b60006132df82356147f0565b905092915050565b60006132f38235614802565b905092915050565b6000613307823561480e565b905092915050565b600061331b825161480e565b905092915050565b600082601f830112151561333657600080fd5b81356133496133448261470a565b6146dd565b9150808252602083016020830185838301111561336557600080fd5b61337083828461487a565b50505092915050565b600082601f830112151561338c57600080fd5b813561339f61339a82614736565b6146dd565b915080825260208301602083018583830111156133bb57600080fd5b6133c683828461487a565b50505092915050565b60006133db823561483a565b905092915050565b6000602082840312156133f557600080fd5b6000613403848285016132d3565b91505092915050565b6000806040838503121561341f57600080fd5b600061342d858286016132d3565b925050602061343e858286016132d3565b9150509250929050565b60008060006060848603121561345d57600080fd5b600061346b868287016132d3565b935050602061347c868287016132d3565b925050604061348d868287016133cf565b9150509250925092565b600080600080608085870312156134ad57600080fd5b60006134bb878288016132d3565b94505060206134cc878288016132d3565b93505060406134dd878288016133cf565b925050606085013567ffffffffffffffff8111156134fa57600080fd5b61350687828801613323565b91505092959194509250565b6000806040838503121561352557600080fd5b6000613533858286016132d3565b9250506020613544858286016132e7565b9150509250929050565b60008060006060848603121561356357600080fd5b6000613571868287016132d3565b9350506020613582868287016132e7565b9250506040613593868287016133cf565b9150509250925092565b600080600080600060a086880312156135b557600080fd5b60006135c3888289016132d3565b955050602086013567ffffffffffffffff8111156135e057600080fd5b6135ec88828901613379565b945050604086013567ffffffffffffffff81111561360957600080fd5b61361588828901613379565b9350506060613626888289016133cf565b9250506080613637888289016133cf565b9150509295509295909350565b6000806040838503121561365757600080fd5b6000613665858286016132d3565b9250506020613676858286016133cf565b9150509250929050565b60006020828403121561369257600080fd5b60006136a0848285016132fb565b91505092915050565b6000602082840312156136bb57600080fd5b60006136c98482850161330f565b91505092915050565b6000602082840312156136e457600080fd5b60006136f2848285016133cf565b91505092915050565b61370481614844565b82525050565b613713816147a8565b82525050565b60006137248261476f565b80845260208401935061373683614762565b60005b828110156137685761374c868351614155565b6137558261479b565b9150602086019550600181019050613739565b50849250505092915050565b61377d816147ba565b82525050565b600061378e8261477a565b8084526137a2816020860160208601614889565b6137ab816148bc565b602085010191505092915050565b60006137c482614790565b8084526137d8816020860160208601614889565b6137e1816148bc565b602085010191505092915050565b60006137fa82614785565b80845261380e816020860160208601614889565b613817816148bc565b602085010191505092915050565b6000601482527f41646472657373206973206e6f742076616c69640000000000000000000000006020830152604082019050919050565b6000602b82527f455243373231456e756d657261626c653a206f776e657220696e646578206f7560208301527f74206f6620626f756e64730000000000000000000000000000000000000000006040830152606082019050919050565b6000601a82527f54726176656c207065726d6974206f7574206f662064617465210000000000006020830152604082019050919050565b6000603282527f4552433732313a207472616e7366657220746f206e6f6e20455243373231526560208301527f63656976657220696d706c656d656e74657200000000000000000000000000006040830152606082019050919050565b6000602d82527f55736572206973206e6f742061757468656e7469636174656420746f2061707060208301527f726f7665207265717565737421000000000000000000000000000000000000006040830152606082019050919050565b6000601c82527f4552433732313a20746f6b656e20616c7265616479206d696e746564000000006020830152604082019050919050565b6000602482527f4552433732313a207472616e7366657220746f20746865207a65726f2061646460208301527f72657373000000000000000000000000000000000000000000000000000000006040830152606082019050919050565b6000601982527f4552433732313a20617070726f766520746f2063616c6c6572000000000000006020830152604082019050919050565b6000601e82527f536166654d6174683a207375627472616374696f6e206f766572666c6f7700006020830152604082019050919050565b6000602c82527f55736572206e6f7420617574686f72697a656420746f20636865636b2061707060208301527f726f76616c2073746174757300000000000000000000000000000000000000006040830152606082019050919050565b6000602c82527f4552433732313a206f70657261746f7220717565727920666f72206e6f6e657860208301527f697374656e7420746f6b656e00000000000000000000000000000000000000006040830152606082019050919050565b6000603882527f4552433732313a20617070726f76652063616c6c6572206973206e6f74206f7760208301527f6e6572206e6f7220617070726f76656420666f7220616c6c00000000000000006040830152606082019050919050565b6000602a82527f4552433732313a2062616c616e636520717565727920666f7220746865207a6560208301527f726f2061646472657373000000000000000000000000000000000000000000006040830152606082019050919050565b6000602982527f4552433732313a206f776e657220717565727920666f72206e6f6e657869737460208301527f656e7420746f6b656e00000000000000000000000000000000000000000000006040830152606082019050919050565b6000601982527f446174657320617265206e6f7420636f6e73697374656e7421000000000000006020830152604082019050919050565b6000602082527f4552433732313a206d696e7420746f20746865207a65726f20616464726573736020830152604082019050919050565b6000602c82527f4552433732313a20617070726f76656420717565727920666f72206e6f6e657860208301527f697374656e7420746f6b656e00000000000000000000000000000000000000006040830152606082019050919050565b6000602982527f4552433732313a207472616e73666572206f6620746f6b656e2074686174206960208301527f73206e6f74206f776e00000000000000000000000000000000000000000000006040830152606082019050919050565b6000602f82527f4552433732314d657461646174613a2055524920717565727920666f72206e6f60208301527f6e6578697374656e7420746f6b656e00000000000000000000000000000000006040830152606082019050919050565b6000601282527f54726176656c20494420696e76616c69642e00000000000000000000000000006020830152604082019050919050565b6000602182527f4552433732313a20617070726f76616c20746f2063757272656e74206f776e6560208301527f72000000000000000000000000000000000000000000000000000000000000006040830152606082019050919050565b6000603182527f4552433732313a207472616e736665722063616c6c6572206973206e6f74206f60208301527f776e6572206e6f7220617070726f7665640000000000000000000000000000006040830152606082019050919050565b6000602c82527f455243373231456e756d657261626c653a20676c6f62616c20696e646578206f60208301527f7574206f6620626f756e647300000000000000000000000000000000000000006040830152606082019050919050565b6000601e82527f476976656e2061646472657373206973206e6f7420617070726f7665642100006020830152604082019050919050565b6000602782527f55736572206e6f7420617574686f72697a656420746f2076696577207065726d60208301527f697420696e666f000000000000000000000000000000000000000000000000006040830152606082019050919050565b6000602a82527f55736572206e6f7420617574686f72697a656420746f20636865636b2070657260208301527f6d697420737461747573000000000000000000000000000000000000000000006040830152606082019050919050565b6000602582527f5065726d69742074696d65206d75737420626520626967676572207468616e2060208301527f7a65726f210000000000000000000000000000000000000000000000000000006040830152606082019050919050565b6000610100830160008301516140b7600086018261370a565b50602083015184820360208601526140cf82826137ef565b915050604083015184820360408601526140e982826137ef565b91505060608301516140fe6060860182614155565b5060808301516141116080860182614155565b5060a083015161412460a0860182613774565b5060c083015161413760c0860182614155565b5060e083015161414a60e0860182614155565b508091505092915050565b61415e816147e6565b82525050565b6000602082019050614179600083018461370a565b92915050565b600060808201905061419460008301876136fb565b6141a1602083018661370a565b6141ae6040830185614155565b81810360608301526141c08184613783565b905095945050505050565b600060a0820190506141e0600083018861370a565b81810360208301526141f281876137b9565b9050818103604083015261420681866137b9565b90506142156060830185614155565b6142226080830184614155565b9695505050505050565b600061010082019050614242600083018b61370a565b8181036020830152614254818a6137ef565b9050818103604083015261426881896137ef565b90506142776060830188614155565b6142846080830187614155565b61429160a0830186613774565b61429e60c0830185614155565b6142ab60e0830184614155565b9998505050505050505050565b600060208201905081810360008301526142d28184613719565b905092915050565b60006020820190506142ef6000830184613774565b92915050565b6000602082019050818103600083015261430f81846137b9565b905092915050565b6000602082019050818103600083015261433081613825565b9050919050565b600060208201905081810360008301526143508161385c565b9050919050565b60006020820190508181036000830152614370816138b9565b9050919050565b60006020820190508181036000830152614390816138f0565b9050919050565b600060208201905081810360008301526143b08161394d565b9050919050565b600060208201905081810360008301526143d0816139aa565b9050919050565b600060208201905081810360008301526143f0816139e1565b9050919050565b6000602082019050818103600083015261441081613a3e565b9050919050565b6000602082019050818103600083015261443081613a75565b9050919050565b6000602082019050818103600083015261445081613aac565b9050919050565b6000602082019050818103600083015261447081613b09565b9050919050565b6000602082019050818103600083015261449081613b66565b9050919050565b600060208201905081810360008301526144b081613bc3565b9050919050565b600060208201905081810360008301526144d081613c20565b9050919050565b600060208201905081810360008301526144f081613c7d565b9050919050565b6000602082019050818103600083015261451081613cb4565b9050919050565b6000602082019050818103600083015261453081613ceb565b9050919050565b6000602082019050818103600083015261455081613d48565b9050919050565b6000602082019050818103600083015261457081613da5565b9050919050565b6000602082019050818103600083015261459081613e02565b9050919050565b600060208201905081810360008301526145b081613e39565b9050919050565b600060208201905081810360008301526145d081613e96565b9050919050565b600060208201905081810360008301526145f081613ef3565b9050919050565b6000602082019050818103600083015261461081613f50565b9050919050565b6000602082019050818103600083015261463081613f87565b9050919050565b6000602082019050818103600083015261465081613fe4565b9050919050565b6000602082019050818103600083015261467081614041565b9050919050565b60006020820190508181036000830152614691818461409e565b905092915050565b60006020820190506146ae6000830184614155565b92915050565b60006040820190506146c96000830185614155565b6146d660208301846136fb565b9392505050565b6000604051905081810181811067ffffffffffffffff8211171561470057600080fd5b8060405250919050565b600067ffffffffffffffff82111561472157600080fd5b601f19601f8301169050602081019050919050565b600067ffffffffffffffff82111561474d57600080fd5b601f19601f8301169050602081019050919050565b6000602082019050919050565b600081519050919050565b600081519050919050565b600081519050919050565b600081519050919050565b6000602082019050919050565b60006147b3826147c6565b9050919050565b60008115159050919050565b600073ffffffffffffffffffffffffffffffffffffffff82169050919050565b6000819050919050565b60006147fb826147c6565b9050919050565b60008115159050919050565b60007fffffffff0000000000000000000000000000000000000000000000000000000082169050919050565b6000819050919050565b600061484f82614856565b9050919050565b600061486182614868565b9050919050565b6000614873826147c6565b9050919050565b82818337600083830152505050565b60005b838110156148a757808201518184015260208101905061488c565b838111156148b6576000848401525b50505050565b6000601f19601f830116905091905056fea265627a7a723058205efb047f4875ffb843eafd44e9941798f2ec6e06fc914246e935120b125e7b7f6c6578706572696d656e74616cf50037",
  "source": "pragma solidity >=0.5.0 <=0.6.0;\npragma experimental ABIEncoderV2;\n\nimport \"./ERC721Full.sol\";\n\ncontract travelPermit is ERC721Full {\n    uint travelCount = 0;\n\n    struct Travel{\n        address addr;\n        string from;\n        string to;\n        uint256 startTime;\n        uint256 endTime;\n        bool isApproved;\n        uint256 approveTime;\n        uint256 id;\n    }\n\n    struct Person{\n        string fName;\n        string lName;\n        uint256 citizenshipNumber;\n        \n    }\n    \n    modifier onlyAdmin(){\n        require(isAdmin[msg.sender],\"User is not authenticated to approve request!\");\n        _;\n    }\n\n    modifier onlyMaintainer(){\n        require(isMaintainer[msg.sender]);\n        _;\n    }\n    \n    event travelRequest(address _addr,string origin, string to, uint start,uint end);\n    event travelAccepted(uint travelId, address authorizationAddr);\n    \n    mapping(uint => Travel) public travels;\n    \n    mapping(address => uint[]) public userTravelPermits;\n    mapping(address => uint) public userTravelCount;\n    \n    \n    mapping(address => bool) public isAdmin;\n    mapping(address => bool) public isMaintainer;\n    \n    constructor() ERC721Full(\"Travel\", \"TRVL\") public{\n        isAdmin[0xB6d5033ff68Ca514054AD8A85dF4Da2C4a631112] = true;\n    }\n    \n    function requestPermission(address _addr, string memory from, string memory to, uint256 startTime,uint256 endTime) public{\n        require( _addr == msg.sender || isApprovedForAll(_addr,msg.sender), \"Given address is not approved!\");\n        require(startTime >= 0 && endTime >= 0, \"Permit time must be bigger than zero!\");\n        require(startTime < endTime, \"Dates are not consistent!\");\n        \n        travels[travelCount] = Travel(_addr,from,to,startTime,endTime,false,0,travelCount);\n        _mint(msg.sender,travelCount);\n        userTravelPermits[_addr].push(travelCount);\n        userTravelCount[_addr]++;\n        \n        travelCount++;\n        emit travelRequest(_addr,from,to,startTime,endTime);\n    }\n    \n    function guardianApproval(address _addr,bool approved) public {\n        require(msg.sender != _addr);\n        setApprovalForAll(_addr, approved);\n    }\n    \n    function approveTravel(uint id) public onlyAdmin{\n        travels[id].isApproved = true;\n        travels[id].approveTime = block.timestamp;\n        \n        emit travelAccepted(id,msg.sender);\n    }\n    \n    /*function userTravelExists(uint id, address _addr) private view returns(bool){\n        for( uint i = 0 ; i < userTravelCount[_addr]; i++){\n            if( userTravelPermits[_addr][i] == id){\n                return true;\n            }\n        }\n        return false;\n    }*/\n    \n    function checkApproval(uint _id) public view returns(bool){\n        require(_id <= travelCount, \"Travel ID invalid.\");\n        require(isMaintainer[msg.sender] || travels[_id].addr == msg.sender, \"User not authorized to check approval status\");\n        \n        return travels[_id].isApproved;\n    }\n    \n    function checkPermit(uint _id) public view returns(bool){\n        require(_id <= travelCount, \"Travel ID invalid.\");\n        require(isMaintainer[msg.sender] || travels[_id].addr == msg.sender, \"User not authorized to check permit status\");\n        \n        require(travels[_id].startTime <= block.timestamp && block.timestamp <= travels[_id].endTime, \"Travel permit out of date!\");\n        \n        return travels[_id].isApproved;\n    }\n    \n    function permitInfo(uint _id) public view returns(Travel memory){\n        require(_id <= travelCount, \"Travel ID invalid.\");\n        require(isMaintainer[msg.sender] || travels[_id].addr == msg.sender || isAdmin[msg.sender], \"User not authorized to view permit info\" );\n        return travels[userTravelPermits[msg.sender][_id]];\n    }\n\n    function returnTravelCount(address _addr) public view returns(uint){\n        require (_addr == msg.sender, \"Address is not valid\");\n        return userTravelCount[msg.sender];\n    } \n\n    function grantPermission(address _addr, bool status, uint role) public onlyAdmin {\n        if (role == 0) {\n            isAdmin[_addr] = status;\n        } else if (role == 1){\n            isMaintainer[_addr] = status;\n        }\n        else{\n            revert();\n        }\n    }\n\n    function userRole() public view returns(uint){\n        if (isAdmin[msg.sender]) {\n            return 0;\n        } else if (isMaintainer[msg.sender]){\n            return 1;\n        }\n        else {\n            return 2;\n        }\n    }\n\n    function travelArray() public view returns(uint[] memory) {\n        return userTravelPermits[msg.sender];\n    }\n\n    function userTravel(uint id) public view returns(Travel memory ){\n        return travels[userTravelPermits[msg.sender][id]];\n    }\n\n}",
  "sourcePath": "/Users/amet/Downloads/starter_kit-master/src/contracts/travelPermit.sol",
  "compiler": {
    "name": "solc",
    "version": "0.5.0+commit.1d4f565a.Emscripten.clang"
  },
  "schemaVersion": "3.3.3",
  "updatedAt": "2021-02-11T05:34:00.723Z",
  "networkType": "ethereum",
  "devdoc": {
    "methods": {
      "approve(address,uint256)": {
        "details": "Approves another address to transfer the given token ID The zero address indicates there is no approved address. There can only be one approved address per token at a given time. Can only be called by the token owner or an approved operator.",
        "params": {
          "to": "address to be approved for the given token ID",
          "tokenId": "uint256 ID of the token to be approved"
        }
      },
      "balanceOf(address)": {
        "details": "Gets the balance of the specified address.",
        "params": {
          "owner": "address to query the balance of"
        },
        "return": "uint256 representing the amount owned by the passed address"
      },
      "getApproved(uint256)": {
        "details": "Gets the approved address for a token ID, or zero if no address set Reverts if the token ID does not exist.",
        "params": {
          "tokenId": "uint256 ID of the token to query the approval of"
        },
        "return": "address currently approved for the given token ID"
      },
      "isApprovedForAll(address,address)": {
        "details": "Tells whether an operator is approved by a given owner.",
        "params": {
          "operator": "operator address which you want to query the approval of",
          "owner": "owner address which you want to query the approval of"
        },
        "return": "bool whether the given operator is approved by the given owner"
      },
      "name()": {
        "details": "Gets the token name.",
        "return": "string representing the token name"
      },
      "ownerOf(uint256)": {
        "details": "Gets the owner of the specified token ID.",
        "params": {
          "tokenId": "uint256 ID of the token to query the owner of"
        },
        "return": "address currently marked as the owner of the given token ID"
      },
      "safeTransferFrom(address,address,uint256)": {
        "details": "Safely transfers the ownership of a given token ID to another address If the target address is a contract, it must implement `onERC721Received`, which is called upon a safe transfer, and return the magic value `bytes4(keccak256(\"onERC721Received(address,address,uint256,bytes)\"))`; otherwise, the transfer is reverted. Requires the msg.sender to be the owner, approved, or operator",
        "params": {
          "from": "current owner of the token",
          "to": "address to receive the ownership of the given token ID",
          "tokenId": "uint256 ID of the token to be transferred"
        }
      },
      "safeTransferFrom(address,address,uint256,bytes)": {
        "details": "Safely transfers the ownership of a given token ID to another address If the target address is a contract, it must implement `onERC721Received`, which is called upon a safe transfer, and return the magic value `bytes4(keccak256(\"onERC721Received(address,address,uint256,bytes)\"))`; otherwise, the transfer is reverted. Requires the msg.sender to be the owner, approved, or operator",
        "params": {
          "_data": "bytes data to send along with a safe transfer check",
          "from": "current owner of the token",
          "to": "address to receive the ownership of the given token ID",
          "tokenId": "uint256 ID of the token to be transferred"
        }
      },
      "setApprovalForAll(address,bool)": {
        "details": "Sets or unsets the approval of a given operator An operator is allowed to transfer all tokens of the sender on their behalf.",
        "params": {
          "approved": "representing the status of the approval to be set",
          "to": "operator address to set the approval"
        }
      },
      "supportsInterface(bytes4)": {
        "details": "See `IERC165.supportsInterface`.     * Time complexity O(1), guaranteed to always use less than 30 000 gas."
      },
      "symbol()": {
        "details": "Gets the token symbol.",
        "return": "string representing the token symbol"
      },
      "tokenByIndex(uint256)": {
        "details": "Gets the token ID at a given index of all the tokens in this contract Reverts if the index is greater or equal to the total number of tokens.",
        "params": {
          "index": "uint256 representing the index to be accessed of the tokens list"
        },
        "return": "uint256 token ID at the given index of the tokens list"
      },
      "tokenOfOwnerByIndex(address,uint256)": {
        "details": "Gets the token ID at a given index of the tokens list of the requested owner.",
        "params": {
          "index": "uint256 representing the index to be accessed of the requested tokens list",
          "owner": "address owning the tokens list to be accessed"
        },
        "return": "uint256 token ID at the given index of the tokens list owned by the requested address"
      },
      "tokenURI(uint256)": {
        "details": "Returns an URI for a given token ID. Throws if the token ID does not exist. May return an empty string.",
        "params": {
          "tokenId": "uint256 ID of the token to query"
        }
      },
      "totalSupply()": {
        "details": "Gets the total amount of tokens stored by the contract.",
        "return": "uint256 representing the total amount of tokens"
      },
      "transferFrom(address,address,uint256)": {
        "details": "Transfers the ownership of a given token ID to another address. Usage of this method is discouraged, use `safeTransferFrom` whenever possible. Requires the msg.sender to be the owner, approved, or operator.",
        "params": {
          "from": "current owner of the token",
          "to": "address to receive the ownership of the given token ID",
          "tokenId": "uint256 ID of the token to be transferred"
        }
      }
    }
  },
  "userdoc": {
    "methods": {}
  }
}