{
  "contractName": "travelPermit",
  "abi": [
    {
      "constant": true,
      "inputs": [
        {
          "name": "interfaceId",
          "type": "bytes4"
        }
      ],
      "name": "supportsInterface",
      "outputs": [
        {
          "name": "",
          "type": "bool"
        }
      ],
      "payable": false,
      "stateMutability": "view",
      "type": "function"
    },
    {
      "constant": true,
      "inputs": [],
      "name": "name",
      "outputs": [
        {
          "name": "",
          "type": "string"
        }
      ],
      "payable": false,
      "stateMutability": "view",
      "type": "function"
    },
    {
      "constant": true,
      "inputs": [
        {
          "name": "tokenId",
          "type": "uint256"
        }
      ],
      "name": "getApproved",
      "outputs": [
        {
          "name": "",
          "type": "address"
        }
      ],
      "payable": false,
      "stateMutability": "view",
      "type": "function"
    },
    {
      "constant": false,
      "inputs": [
        {
          "name": "to",
          "type": "address"
        },
        {
          "name": "tokenId",
          "type": "uint256"
        }
      ],
      "name": "approve",
      "outputs": [],
      "payable": false,
      "stateMutability": "nonpayable",
      "type": "function"
    },
    {
      "constant": true,
      "inputs": [],
      "name": "totalSupply",
      "outputs": [
        {
          "name": "",
          "type": "uint256"
        }
      ],
      "payable": false,
      "stateMutability": "view",
      "type": "function"
    },
    {
      "constant": false,
      "inputs": [
        {
          "name": "from",
          "type": "address"
        },
        {
          "name": "to",
          "type": "address"
        },
        {
          "name": "tokenId",
          "type": "uint256"
        }
      ],
      "name": "transferFrom",
      "outputs": [],
      "payable": false,
      "stateMutability": "nonpayable",
      "type": "function"
    },
    {
      "constant": true,
      "inputs": [
        {
          "name": "owner",
          "type": "address"
        },
        {
          "name": "index",
          "type": "uint256"
        }
      ],
      "name": "tokenOfOwnerByIndex",
      "outputs": [
        {
          "name": "",
          "type": "uint256"
        }
      ],
      "payable": false,
      "stateMutability": "view",
      "type": "function"
    },
    {
      "constant": false,
      "inputs": [
        {
          "name": "from",
          "type": "address"
        },
        {
          "name": "to",
          "type": "address"
        },
        {
          "name": "tokenId",
          "type": "uint256"
        }
      ],
      "name": "safeTransferFrom",
      "outputs": [],
      "payable": false,
      "stateMutability": "nonpayable",
      "type": "function"
    },
    {
      "constant": true,
      "inputs": [
        {
          "name": "index",
          "type": "uint256"
        }
      ],
      "name": "tokenByIndex",
      "outputs": [
        {
          "name": "",
          "type": "uint256"
        }
      ],
      "payable": false,
      "stateMutability": "view",
      "type": "function"
    },
    {
      "constant": true,
      "inputs": [
        {
          "name": "tokenId",
          "type": "uint256"
        }
      ],
      "name": "ownerOf",
      "outputs": [
        {
          "name": "",
          "type": "address"
        }
      ],
      "payable": false,
      "stateMutability": "view",
      "type": "function"
    },
    {
      "constant": true,
      "inputs": [
        {
          "name": "owner",
          "type": "address"
        }
      ],
      "name": "balanceOf",
      "outputs": [
        {
          "name": "",
          "type": "uint256"
        }
      ],
      "payable": false,
      "stateMutability": "view",
      "type": "function"
    },
    {
      "constant": true,
      "inputs": [],
      "name": "symbol",
      "outputs": [
        {
          "name": "",
          "type": "string"
        }
      ],
      "payable": false,
      "stateMutability": "view",
      "type": "function"
    },
    {
      "constant": false,
      "inputs": [
        {
          "name": "to",
          "type": "address"
        },
        {
          "name": "approved",
          "type": "bool"
        }
      ],
      "name": "setApprovalForAll",
      "outputs": [],
      "payable": false,
      "stateMutability": "nonpayable",
      "type": "function"
    },
    {
      "constant": false,
      "inputs": [
        {
          "name": "from",
          "type": "address"
        },
        {
          "name": "to",
          "type": "address"
        },
        {
          "name": "tokenId",
          "type": "uint256"
        },
        {
          "name": "_data",
          "type": "bytes"
        }
      ],
      "name": "safeTransferFrom",
      "outputs": [],
      "payable": false,
      "stateMutability": "nonpayable",
      "type": "function"
    },
    {
      "constant": true,
      "inputs": [
        {
          "name": "tokenId",
          "type": "uint256"
        }
      ],
      "name": "tokenURI",
      "outputs": [
        {
          "name": "",
          "type": "string"
        }
      ],
      "payable": false,
      "stateMutability": "view",
      "type": "function"
    },
    {
      "constant": true,
      "inputs": [
        {
          "name": "owner",
          "type": "address"
        },
        {
          "name": "operator",
          "type": "address"
        }
      ],
      "name": "isApprovedForAll",
      "outputs": [
        {
          "name": "",
          "type": "bool"
        }
      ],
      "payable": false,
      "stateMutability": "view",
      "type": "function"
    },
    {
      "inputs": [],
      "payable": false,
      "stateMutability": "nonpayable",
      "type": "constructor"
    },
    {
      "anonymous": false,
      "inputs": [
        {
          "indexed": false,
          "name": "_addr",
          "type": "address"
        },
        {
          "indexed": false,
          "name": "origin",
          "type": "string"
        },
        {
          "indexed": false,
          "name": "to",
          "type": "string"
        },
        {
          "indexed": false,
          "name": "start",
          "type": "uint256"
        },
        {
          "indexed": false,
          "name": "end",
          "type": "uint256"
        }
      ],
      "name": "travelRequest",
      "type": "event"
    },
    {
      "anonymous": false,
      "inputs": [
        {
          "indexed": false,
          "name": "travelId",
          "type": "uint256"
        },
        {
          "indexed": false,
          "name": "authorizationAddr",
          "type": "address"
        }
      ],
      "name": "travelAccepted",
      "type": "event"
    },
    {
      "anonymous": false,
      "inputs": [
        {
          "indexed": true,
          "name": "from",
          "type": "address"
        },
        {
          "indexed": true,
          "name": "to",
          "type": "address"
        },
        {
          "indexed": true,
          "name": "tokenId",
          "type": "uint256"
        }
      ],
      "name": "Transfer",
      "type": "event"
    },
    {
      "anonymous": false,
      "inputs": [
        {
          "indexed": true,
          "name": "owner",
          "type": "address"
        },
        {
          "indexed": true,
          "name": "approved",
          "type": "address"
        },
        {
          "indexed": true,
          "name": "tokenId",
          "type": "uint256"
        }
      ],
      "name": "Approval",
      "type": "event"
    },
    {
      "anonymous": false,
      "inputs": [
        {
          "indexed": true,
          "name": "owner",
          "type": "address"
        },
        {
          "indexed": true,
          "name": "operator",
          "type": "address"
        },
        {
          "indexed": false,
          "name": "approved",
          "type": "bool"
        }
      ],
      "name": "ApprovalForAll",
      "type": "event"
    },
    {
      "constant": false,
      "inputs": [
        {
          "name": "_addr",
          "type": "address"
        },
        {
          "name": "from",
          "type": "string"
        },
        {
          "name": "to",
          "type": "string"
        },
        {
          "name": "startTime",
          "type": "uint256"
        },
        {
          "name": "endTime",
          "type": "uint256"
        }
      ],
      "name": "requestPermission",
      "outputs": [],
      "payable": false,
      "stateMutability": "nonpayable",
      "type": "function"
    },
    {
      "constant": false,
      "inputs": [
        {
          "name": "_addr",
          "type": "address"
        },
        {
          "name": "approved",
          "type": "bool"
        }
      ],
      "name": "guardianApproval",
      "outputs": [],
      "payable": false,
      "stateMutability": "nonpayable",
      "type": "function"
    },
    {
      "constant": false,
      "inputs": [
        {
          "name": "id",
          "type": "uint256"
        }
      ],
      "name": "approveTravel",
      "outputs": [],
      "payable": false,
      "stateMutability": "nonpayable",
      "type": "function"
    },
    {
      "constant": true,
      "inputs": [
        {
          "name": "_id",
          "type": "uint256"
        }
      ],
      "name": "checkApproval",
      "outputs": [
        {
          "name": "",
          "type": "bool"
        }
      ],
      "payable": false,
      "stateMutability": "view",
      "type": "function"
    },
    {
      "constant": true,
      "inputs": [
        {
          "name": "_id",
          "type": "uint256"
        }
      ],
      "name": "checkPermit",
      "outputs": [
        {
          "name": "",
          "type": "bool"
        }
      ],
      "payable": false,
      "stateMutability": "view",
      "type": "function"
    },
    {
      "constant": true,
      "inputs": [
        {
          "name": "_id",
          "type": "uint256"
        }
      ],
      "name": "permitInfo",
      "outputs": [
        {
          "components": [
            {
              "name": "addr",
              "type": "address"
            },
            {
              "name": "from",
              "type": "string"
            },
            {
              "name": "to",
              "type": "string"
            },
            {
              "name": "startTime",
              "type": "uint256"
            },
            {
              "name": "endTime",
              "type": "uint256"
            },
            {
              "name": "isApproved",
              "type": "bool"
            },
            {
              "name": "approveTime",
              "type": "uint256"
            }
          ],
          "name": "",
          "type": "tuple"
        }
      ],
      "payable": false,
      "stateMutability": "view",
      "type": "function"
    }
  ],
  "bytecode": "0x60806040526000600c553480156200001657600080fd5b506040805190810160405280600681526020017f54726176656c00000000000000000000000000000000000000000000000000008152506040805190810160405280600481526020017f5452564c000000000000000000000000000000000000000000000000000000008152508181620000c26301ffc9a77c01000000000000000000000000000000000000000000000000000000000262000221640100000000026401000000009004565b620000ff6380ac58cd7c01000000000000000000000000000000000000000000000000000000000262000221640100000000026401000000009004565b6200013c63780e9d637c01000000000000000000000000000000000000000000000000000000000262000221640100000000026401000000009004565b81600990805190602001906200015492919062000317565b5080600a90805190602001906200016d92919062000317565b50620001ab635b5e139f7c01000000000000000000000000000000000000000000000000000000000262000221640100000000026401000000009004565b50505050600160106000732d0ddc5f5072573fabf0ae078a4f933e401ac05473ffffffffffffffffffffffffffffffffffffffff1673ffffffffffffffffffffffffffffffffffffffff16815260200190815260200160002060006101000a81548160ff0219169083151502179055506200041f565b63ffffffff7c010000000000000000000000000000000000000000000000000000000002817bffffffffffffffffffffffffffffffffffffffffffffffffffffffff191614151515620002ab576040517f08c379a0000000000000000000000000000000000000000000000000000000008152600401620002a290620003fd565b60405180910390fd5b6001600080837bffffffffffffffffffffffffffffffffffffffffffffffffffffffff19167bffffffffffffffffffffffffffffffffffffffffffffffffffffffff1916815260200190815260200160002060006101000a81548160ff02191690831515021790555050565b828054600181600116156101000203166002900490600052602060002090601f016020900481019282601f106200035a57805160ff19168380011785556200038b565b828001600101855582156200038b579182015b828111156200038a5782518255916020019190600101906200036d565b5b5090506200039a91906200039e565b5090565b620003c391905b80821115620003bf576000816000905550600101620003a5565b5090565b90565b6000601c82527f4552433136353a20696e76616c696420696e74657266616365206964000000006020830152604082019050919050565b600060208201905081810360008301526200041881620003c6565b9050919050565b613afd806200042f6000396000f3fe608060405260043610610128576000357c0100000000000000000000000000000000000000000000000000000000900463ffffffff16806301ffc9a71461012d57806306fdde031461016a578063081812fc14610195578063095ea7b3146101d257806318160ddd146101fb57806323b872dd146102265780632f745c591461024f57806342842e0e1461028c578063455b1087146102b55780634f6ccce7146102f25780635eec88751461032f5780636352211e1461035857806370a082311461039557806372e0d81a146103d257806392236739146103fb57806395d89b4114610438578063a22cb46514610463578063a97a5a441461048c578063b88d4fde146104b5578063c87b56dd146104de578063e985e9c51461051b578063fea21ce514610558575b600080fd5b34801561013957600080fd5b50610154600480360361014f9190810190612a8c565b610595565b6040516101619190613535565b60405180910390f35b34801561017657600080fd5b5061017f6105fc565b60405161018c9190613550565b60405180910390f35b3480156101a157600080fd5b506101bc60048036036101b79190810190612ade565b61069e565b6040516101c9919061346d565b60405180910390f35b3480156101de57600080fd5b506101f960048036036101f49190810190612a50565b610725565b005b34801561020757600080fd5b506102106108d6565b60405161021d91906138b4565b60405180910390f35b34801561023257600080fd5b5061024d600480360361024891908101906128a3565b6108e3565b005b34801561025b57600080fd5b5061027660048036036102719190810190612a50565b61093e565b60405161028391906138b4565b60405180910390f35b34801561029857600080fd5b506102b360048036036102ae91908101906128a3565b6109eb565b005b3480156102c157600080fd5b506102dc60048036036102d79190810190612ade565b610a0c565b6040516102e99190613892565b60405180910390f35b3480156102fe57600080fd5b5061031960048036036103149190810190612ade565b610d4e565b60405161032691906138b4565b60405180910390f35b34801561033b57600080fd5b50610356600480360361035191908101906129a9565b610dbc565b005b34801561036457600080fd5b5061037f600480360361037a9190810190612ade565b611117565b60405161038c919061346d565b60405180910390f35b3480156103a157600080fd5b506103bc60048036036103b7919081019061283e565b6111cb565b6040516103c991906138b4565b60405180910390f35b3480156103de57600080fd5b506103f960048036036103f49190810190612ade565b61128c565b005b34801561040757600080fd5b50610422600480360361041d9190810190612ade565b61136a565b60405161042f9190613535565b60405180910390f35b34801561044457600080fd5b5061044d611555565b60405161045a9190613550565b60405180910390f35b34801561046f57600080fd5b5061048a6004803603610485919081019061296d565b6115f7565b005b34801561049857600080fd5b506104b360048036036104ae919081019061296d565b611765565b005b3480156104c157600080fd5b506104dc60048036036104d791908101906128f2565b6117ae565b005b3480156104ea57600080fd5b5061050560048036036105009190810190612ade565b61180c565b6040516105129190613550565b60405180910390f35b34801561052757600080fd5b50610542600480360361053d9190810190612867565b61190b565b60405161054f9190613535565b60405180910390f35b34801561056457600080fd5b5061057f600480360361057a9190810190612ade565b61199f565b60405161058c9190613535565b60405180910390f35b6000806000837bffffffffffffffffffffffffffffffffffffffffffffffffffffffff19167bffffffffffffffffffffffffffffffffffffffffffffffffffffffff1916815260200190815260200160002060009054906101000a900460ff169050919050565b606060098054600181600116156101000203166002900480601f0160208091040260200160405190810160405280929190818152602001828054600181600116156101000203166002900480156106945780601f1061066957610100808354040283529160200191610694565b820191906000526020600020905b81548152906001019060200180831161067757829003601f168201915b5050505050905090565b60006106a982611b0d565b15156106ea576040517f08c379a00000000000000000000000000000000000000000000000000000000081526004016106e190613732565b60405180910390fd5b6002600083815260200190815260200160002060009054906101000a900473ffffffffffffffffffffffffffffffffffffffff169050919050565b600061073082611117565b90508073ffffffffffffffffffffffffffffffffffffffff168373ffffffffffffffffffffffffffffffffffffffff16141515156107a3576040517f08c379a000000000000000000000000000000000000000000000000000000000815260040161079a906137b2565b60405180910390fd5b8073ffffffffffffffffffffffffffffffffffffffff163373ffffffffffffffffffffffffffffffffffffffff1614806107e357506107e2813361190b565b5b1515610824576040517f08c379a000000000000000000000000000000000000000000000000000000000815260040161081b90613692565b60405180910390fd5b826002600084815260200190815260200160002060006101000a81548173ffffffffffffffffffffffffffffffffffffffff021916908373ffffffffffffffffffffffffffffffffffffffff160217905550818373ffffffffffffffffffffffffffffffffffffffff168273ffffffffffffffffffffffffffffffffffffffff167f8c5be1e5ebec7d5bd14f71427d1e84f3dd0314c0f7b2291e5b200ac8c7c3b92560405160405180910390a4505050565b6000600780549050905090565b6108ed3382611b7f565b151561092e576040517f08c379a0000000000000000000000000000000000000000000000000000000008152600401610925906137d2565b60405180910390fd5b610939838383611c5f565b505050565b6000610949836111cb565b8210151561098c576040517f08c379a000000000000000000000000000000000000000000000000000000000815260040161098390613572565b60405180910390fd5b600560008473ffffffffffffffffffffffffffffffffffffffff1673ffffffffffffffffffffffffffffffffffffffff168152602001908152602001600020828154811015156109d857fe5b9060005260206000200154905092915050565b610a0783838360206040519081016040528060008152506117ae565b505050565b610a14612607565b600c548211151515610a5b576040517f08c379a0000000000000000000000000000000000000000000000000000000008152600401610a5290613792565b60405180910390fd5b601160003373ffffffffffffffffffffffffffffffffffffffff1673ffffffffffffffffffffffffffffffffffffffff16815260200190815260200160002060009054906101000a900460ff1680610b1457503373ffffffffffffffffffffffffffffffffffffffff16600d600084815260200190815260200160002060000160009054906101000a900473ffffffffffffffffffffffffffffffffffffffff1673ffffffffffffffffffffffffffffffffffffffff16145b1515610b55576040517f08c379a0000000000000000000000000000000000000000000000000000000008152600401610b4c90613832565b60405180910390fd5b600d600083815260200190815260200160002060e060405190810160405290816000820160009054906101000a900473ffffffffffffffffffffffffffffffffffffffff1673ffffffffffffffffffffffffffffffffffffffff1673ffffffffffffffffffffffffffffffffffffffff168152602001600182018054600181600116156101000203166002900480601f016020809104026020016040519081016040528092919081815260200182805460018160011615610100020316600290048015610c635780601f10610c3857610100808354040283529160200191610c63565b820191906000526020600020905b815481529060010190602001808311610c4657829003601f168201915b50505050508152602001600282018054600181600116156101000203166002900480601f016020809104026020016040519081016040528092919081815260200182805460018160011615610100020316600290048015610d055780601f10610cda57610100808354040283529160200191610d05565b820191906000526020600020905b815481529060010190602001808311610ce857829003601f168201915b5050505050815260200160038201548152602001600482015481526020016005820160009054906101000a900460ff161515151581526020016006820154815250509050919050565b6000610d586108d6565b82101515610d9b576040517f08c379a0000000000000000000000000000000000000000000000000000000008152600401610d92906137f2565b60405180910390fd5b600782815481101515610daa57fe5b90600052602060002001549050919050565b3373ffffffffffffffffffffffffffffffffffffffff168573ffffffffffffffffffffffffffffffffffffffff161480610dfc5750610dfb853361190b565b5b1515610e3d576040517f08c379a0000000000000000000000000000000000000000000000000000000008152600401610e3490613812565b60405180910390fd5b60008210158015610e4f575060008110155b1515610e90576040517f08c379a0000000000000000000000000000000000000000000000000000000008152600401610e8790613872565b60405180910390fd5b8082101515610ed4576040517f08c379a0000000000000000000000000000000000000000000000000000000008152600401610ecb906136f2565b60405180910390fd5b60e0604051908101604052808673ffffffffffffffffffffffffffffffffffffffff1681526020018581526020018481526020018381526020018281526020016000151581526020016000815250600d6000600c54815260200190815260200160002060008201518160000160006101000a81548173ffffffffffffffffffffffffffffffffffffffff021916908373ffffffffffffffffffffffffffffffffffffffff1602179055506020820151816001019080519060200190610f9a92919061265d565b506040820151816002019080519060200190610fb792919061265d565b50606082015181600301556080820151816004015560a08201518160050160006101000a81548160ff02191690831515021790555060c0820151816006015590505061100533600c54611c83565b600e60008673ffffffffffffffffffffffffffffffffffffffff1673ffffffffffffffffffffffffffffffffffffffff168152602001908152602001600020600c549080600181540180825580915050906001820390600052602060002001600090919290919091505550600f60008673ffffffffffffffffffffffffffffffffffffffff1673ffffffffffffffffffffffffffffffffffffffff16815260200190815260200160002060008154809291906001019190505550600c600081548092919060010191905055507f2c2ccc575a588f4195d3925b4b7a502f14341fd6d370613477fef39f4cde629685858585856040516111089594939291906134d4565b60405180910390a15050505050565b6000806001600084815260200190815260200160002060009054906101000a900473ffffffffffffffffffffffffffffffffffffffff169050600073ffffffffffffffffffffffffffffffffffffffff168173ffffffffffffffffffffffffffffffffffffffff16141515156111c2576040517f08c379a00000000000000000000000000000000000000000000000000000000081526004016111b9906136d2565b60405180910390fd5b80915050919050565b60008073ffffffffffffffffffffffffffffffffffffffff168273ffffffffffffffffffffffffffffffffffffffff161415151561123e576040517f08c379a0000000000000000000000000000000000000000000000000000000008152600401611235906136b2565b60405180910390fd5b611285600360008473ffffffffffffffffffffffffffffffffffffffff1673ffffffffffffffffffffffffffffffffffffffff168152602001908152602001600020611ca4565b9050919050565b601060003373ffffffffffffffffffffffffffffffffffffffff1673ffffffffffffffffffffffffffffffffffffffff16815260200190815260200160002060009054906101000a900460ff1615156112e457600080fd5b6001600d600083815260200190815260200160002060050160006101000a81548160ff02191690831515021790555042600d6000838152602001908152602001600020600601819055507f507d127d9fe5c43fe055774b07999ab87122541e0959ad8d1b4216e91901647c813360405161135f9291906138cf565b60405180910390a150565b6000600c5482111515156113b3576040517f08c379a00000000000000000000000000000000000000000000000000000000081526004016113aa90613792565b60405180910390fd5b601160003373ffffffffffffffffffffffffffffffffffffffff1673ffffffffffffffffffffffffffffffffffffffff16815260200190815260200160002060009054906101000a900460ff168061146c57503373ffffffffffffffffffffffffffffffffffffffff16600d600084815260200190815260200160002060000160009054906101000a900473ffffffffffffffffffffffffffffffffffffffff1673ffffffffffffffffffffffffffffffffffffffff16145b15156114ad576040517f08c379a00000000000000000000000000000000000000000000000000000000081526004016114a490613852565b60405180910390fd5b42600d600084815260200190815260200160002060030154111580156114e95750600d6000838152602001908152602001600020600401544211155b151561152a576040517f08c379a000000000000000000000000000000000000000000000000000000000815260040161152190613592565b60405180910390fd5b600d600083815260200190815260200160002060050160009054906101000a900460ff169050919050565b6060600a8054600181600116156101000203166002900480601f0160208091040260200160405190810160405280929190818152602001828054600181600116156101000203166002900480156115ed5780601f106115c2576101008083540402835291602001916115ed565b820191906000526020600020905b8154815290600101906020018083116115d057829003601f168201915b5050505050905090565b3373ffffffffffffffffffffffffffffffffffffffff168273ffffffffffffffffffffffffffffffffffffffff1614151515611668576040517f08c379a000000000000000000000000000000000000000000000000000000000815260040161165f90613612565b60405180910390fd5b80600460003373ffffffffffffffffffffffffffffffffffffffff1673ffffffffffffffffffffffffffffffffffffffff16815260200190815260200160002060008473ffffffffffffffffffffffffffffffffffffffff1673ffffffffffffffffffffffffffffffffffffffff16815260200190815260200160002060006101000a81548160ff0219169083151502179055508173ffffffffffffffffffffffffffffffffffffffff163373ffffffffffffffffffffffffffffffffffffffff167f17307eab39ab6107e8899845ad3d59bd9653f200f220920489ca2b5937696c31836040516117599190613535565b60405180910390a35050565b8173ffffffffffffffffffffffffffffffffffffffff163373ffffffffffffffffffffffffffffffffffffffff16141515156117a057600080fd5b6117aa82826115f7565b5050565b6117b98484846108e3565b6117c584848484611cb2565b1515611806576040517f08c379a00000000000000000000000000000000000000000000000000000000081526004016117fd906135b2565b60405180910390fd5b50505050565b606061181782611b0d565b1515611858576040517f08c379a000000000000000000000000000000000000000000000000000000000815260040161184f90613772565b60405180910390fd5b600b60008381526020019081526020016000208054600181600116156101000203166002900480601f0160208091040260200160405190810160405280929190818152602001828054600181600116156101000203166002900480156118ff5780601f106118d4576101008083540402835291602001916118ff565b820191906000526020600020905b8154815290600101906020018083116118e257829003601f168201915b50505050509050919050565b6000600460008473ffffffffffffffffffffffffffffffffffffffff1673ffffffffffffffffffffffffffffffffffffffff16815260200190815260200160002060008373ffffffffffffffffffffffffffffffffffffffff1673ffffffffffffffffffffffffffffffffffffffff16815260200190815260200160002060009054906101000a900460ff16905092915050565b6000600c5482111515156119e8576040517f08c379a00000000000000000000000000000000000000000000000000000000081526004016119df90613792565b60405180910390fd5b601160003373ffffffffffffffffffffffffffffffffffffffff1673ffffffffffffffffffffffffffffffffffffffff16815260200190815260200160002060009054906101000a900460ff1680611aa157503373ffffffffffffffffffffffffffffffffffffffff16600d600084815260200190815260200160002060000160009054906101000a900473ffffffffffffffffffffffffffffffffffffffff1673ffffffffffffffffffffffffffffffffffffffff16145b1515611ae2576040517f08c379a0000000000000000000000000000000000000000000000000000000008152600401611ad990613652565b60405180910390fd5b600d600083815260200190815260200160002060050160009054906101000a900460ff169050919050565b6000806001600084815260200190815260200160002060009054906101000a900473ffffffffffffffffffffffffffffffffffffffff169050600073ffffffffffffffffffffffffffffffffffffffff168173ffffffffffffffffffffffffffffffffffffffff161415915050919050565b6000611b8a82611b0d565b1515611bcb576040517f08c379a0000000000000000000000000000000000000000000000000000000008152600401611bc290613672565b60405180910390fd5b6000611bd683611117565b90508073ffffffffffffffffffffffffffffffffffffffff168473ffffffffffffffffffffffffffffffffffffffff161480611c4557508373ffffffffffffffffffffffffffffffffffffffff16611c2d8461069e565b73ffffffffffffffffffffffffffffffffffffffff16145b80611c565750611c55818561190b565b5b91505092915050565b611c6a838383611e03565b611c748382612036565b611c7e82826121da565b505050565b611c8d82826122a1565b611c9782826121da565b611ca081612457565b5050565b600081600001549050919050565b6000611cd38473ffffffffffffffffffffffffffffffffffffffff166124a3565b1515611ce25760019050611dfb565b60008473ffffffffffffffffffffffffffffffffffffffff1663150b7a02338887876040518563ffffffff167c0100000000000000000000000000000000000000000000000000000000028152600401611d3f9493929190613488565b602060405180830381600087803b158015611d5957600080fd5b505af1158015611d6d573d6000803e3d6000fd5b505050506040513d601f19601f82011682018060405250611d919190810190612ab5565b905063150b7a027c0100000000000000000000000000000000000000000000000000000000027bffffffffffffffffffffffffffffffffffffffffffffffffffffffff1916817bffffffffffffffffffffffffffffffffffffffffffffffffffffffff1916149150505b949350505050565b8273ffffffffffffffffffffffffffffffffffffffff16611e2382611117565b73ffffffffffffffffffffffffffffffffffffffff16141515611e7b576040517f08c379a0000000000000000000000000000000000000000000000000000000008152600401611e7290613752565b60405180910390fd5b600073ffffffffffffffffffffffffffffffffffffffff168273ffffffffffffffffffffffffffffffffffffffff1614151515611eed576040517f08c379a0000000000000000000000000000000000000000000000000000000008152600401611ee4906135f2565b60405180910390fd5b611ef6816124b6565b611f3d600360008573ffffffffffffffffffffffffffffffffffffffff1673ffffffffffffffffffffffffffffffffffffffff168152602001908152602001600020612576565b611f84600360008473ffffffffffffffffffffffffffffffffffffffff1673ffffffffffffffffffffffffffffffffffffffff168152602001908152602001600020612599565b816001600083815260200190815260200160002060006101000a81548173ffffffffffffffffffffffffffffffffffffffff021916908373ffffffffffffffffffffffffffffffffffffffff160217905550808273ffffffffffffffffffffffffffffffffffffffff168473ffffffffffffffffffffffffffffffffffffffff167fddf252ad1be2c89b69c2b068fc378daa952ba7f163c4a11628f55a4df523b3ef60405160405180910390a4505050565b600061208e6001600560008673ffffffffffffffffffffffffffffffffffffffff1673ffffffffffffffffffffffffffffffffffffffff168152602001908152602001600020805490506125af90919063ffffffff16565b90506000600660008481526020019081526020016000205490508181141515612181576000600560008673ffffffffffffffffffffffffffffffffffffffff1673ffffffffffffffffffffffffffffffffffffffff168152602001908152602001600020838154811015156120ff57fe5b9060005260206000200154905080600560008773ffffffffffffffffffffffffffffffffffffffff1673ffffffffffffffffffffffffffffffffffffffff1681526020019081526020016000208381548110151561215957fe5b9060005260206000200181905550816006600083815260200190815260200160002081905550505b600560008573ffffffffffffffffffffffffffffffffffffffff1673ffffffffffffffffffffffffffffffffffffffff1681526020019081526020016000208054809190600190036121d391906126dd565b5050505050565b600560008373ffffffffffffffffffffffffffffffffffffffff1673ffffffffffffffffffffffffffffffffffffffff168152602001908152602001600020805490506006600083815260200190815260200160002081905550600560008373ffffffffffffffffffffffffffffffffffffffff1673ffffffffffffffffffffffffffffffffffffffff1681526020019081526020016000208190806001815401808255809150509060018203906000526020600020016000909192909190915055505050565b600073ffffffffffffffffffffffffffffffffffffffff168273ffffffffffffffffffffffffffffffffffffffff1614151515612313576040517f08c379a000000000000000000000000000000000000000000000000000000000815260040161230a90613712565b60405180910390fd5b61231c81611b0d565b15151561235e576040517f08c379a0000000000000000000000000000000000000000000000000000000008152600401612355906135d2565b60405180910390fd5b816001600083815260200190815260200160002060006101000a81548173ffffffffffffffffffffffffffffffffffffffff021916908373ffffffffffffffffffffffffffffffffffffffff1602179055506123f7600360008473ffffffffffffffffffffffffffffffffffffffff1673ffffffffffffffffffffffffffffffffffffffff168152602001908152602001600020612599565b808273ffffffffffffffffffffffffffffffffffffffff16600073ffffffffffffffffffffffffffffffffffffffff167fddf252ad1be2c89b69c2b068fc378daa952ba7f163c4a11628f55a4df523b3ef60405160405180910390a45050565b6007805490506008600083815260200190815260200160002081905550600781908060018154018082558091505090600182039060005260206000200160009091929091909150555050565b600080823b905060008111915050919050565b600073ffffffffffffffffffffffffffffffffffffffff166002600083815260200190815260200160002060009054906101000a900473ffffffffffffffffffffffffffffffffffffffff1673ffffffffffffffffffffffffffffffffffffffff161415156125735760006002600083815260200190815260200160002060006101000a81548173ffffffffffffffffffffffffffffffffffffffff021916908373ffffffffffffffffffffffffffffffffffffffff1602179055505b50565b61258e600182600001546125af90919063ffffffff16565b816000018190555050565b6001816000016000828254019250508190555050565b60008282111515156125f6576040517f08c379a00000000000000000000000000000000000000000000000000000000081526004016125ed90613632565b60405180910390fd5b600082840390508091505092915050565b60e060405190810160405280600073ffffffffffffffffffffffffffffffffffffffff16815260200160608152602001606081526020016000815260200160008152602001600015158152602001600081525090565b828054600181600116156101000203166002900490600052602060002090601f016020900481019282601f1061269e57805160ff19168380011785556126cc565b828001600101855582156126cc579182015b828111156126cb5782518255916020019190600101906126b0565b5b5090506126d99190612709565b5090565b815481835581811115612704578183600052602060002091820191016127039190612709565b5b505050565b61272b91905b8082111561272757600081600090555060010161270f565b5090565b90565b600061273a82356139e6565b905092915050565b600061274e82356139f8565b905092915050565b60006127628235613a04565b905092915050565b60006127768251613a04565b905092915050565b600082601f830112151561279157600080fd5b81356127a461279f82613925565b6138f8565b915080825260208301602083018583830111156127c057600080fd5b6127cb838284613a70565b50505092915050565b600082601f83011215156127e757600080fd5b81356127fa6127f582613951565b6138f8565b9150808252602083016020830185838301111561281657600080fd5b612821838284613a70565b50505092915050565b60006128368235613a30565b905092915050565b60006020828403121561285057600080fd5b600061285e8482850161272e565b91505092915050565b6000806040838503121561287a57600080fd5b60006128888582860161272e565b92505060206128998582860161272e565b9150509250929050565b6000806000606084860312156128b857600080fd5b60006128c68682870161272e565b93505060206128d78682870161272e565b92505060406128e88682870161282a565b9150509250925092565b6000806000806080858703121561290857600080fd5b60006129168782880161272e565b94505060206129278782880161272e565b93505060406129388782880161282a565b925050606085013567ffffffffffffffff81111561295557600080fd5b6129618782880161277e565b91505092959194509250565b6000806040838503121561298057600080fd5b600061298e8582860161272e565b925050602061299f85828601612742565b9150509250929050565b600080600080600060a086880312156129c157600080fd5b60006129cf8882890161272e565b955050602086013567ffffffffffffffff8111156129ec57600080fd5b6129f8888289016127d4565b945050604086013567ffffffffffffffff811115612a1557600080fd5b612a21888289016127d4565b9350506060612a328882890161282a565b9250506080612a438882890161282a565b9150509295509295909350565b60008060408385031215612a6357600080fd5b6000612a718582860161272e565b9250506020612a828582860161282a565b9150509250929050565b600060208284031215612a9e57600080fd5b6000612aac84828501612756565b91505092915050565b600060208284031215612ac757600080fd5b6000612ad58482850161276a565b91505092915050565b600060208284031215612af057600080fd5b6000612afe8482850161282a565b91505092915050565b612b1081613a3a565b82525050565b612b1f8161399e565b82525050565b612b2e816139b0565b82525050565b6000612b3f8261397d565b808452612b53816020860160208601613a7f565b612b5c81613ab2565b602085010191505092915050565b6000612b7582613993565b808452612b89816020860160208601613a7f565b612b9281613ab2565b602085010191505092915050565b6000612bab82613988565b808452612bbf816020860160208601613a7f565b612bc881613ab2565b602085010191505092915050565b6000602b82527f455243373231456e756d657261626c653a206f776e657220696e646578206f7560208301527f74206f6620626f756e64730000000000000000000000000000000000000000006040830152606082019050919050565b6000601a82527f54726176656c207065726d6974206f7574206f662064617465210000000000006020830152604082019050919050565b6000603282527f4552433732313a207472616e7366657220746f206e6f6e20455243373231526560208301527f63656976657220696d706c656d656e74657200000000000000000000000000006040830152606082019050919050565b6000601c82527f4552433732313a20746f6b656e20616c7265616479206d696e746564000000006020830152604082019050919050565b6000602482527f4552433732313a207472616e7366657220746f20746865207a65726f2061646460208301527f72657373000000000000000000000000000000000000000000000000000000006040830152606082019050919050565b6000601982527f4552433732313a20617070726f766520746f2063616c6c6572000000000000006020830152604082019050919050565b6000601e82527f536166654d6174683a207375627472616374696f6e206f766572666c6f7700006020830152604082019050919050565b6000602c82527f55736572206e6f7420617574686f72697a656420746f20636865636b2061707060208301527f726f76616c2073746174757300000000000000000000000000000000000000006040830152606082019050919050565b6000602c82527f4552433732313a206f70657261746f7220717565727920666f72206e6f6e657860208301527f697374656e7420746f6b656e00000000000000000000000000000000000000006040830152606082019050919050565b6000603882527f4552433732313a20617070726f76652063616c6c6572206973206e6f74206f7760208301527f6e6572206e6f7220617070726f76656420666f7220616c6c00000000000000006040830152606082019050919050565b6000602a82527f4552433732313a2062616c616e636520717565727920666f7220746865207a6560208301527f726f2061646472657373000000000000000000000000000000000000000000006040830152606082019050919050565b6000602982527f4552433732313a206f776e657220717565727920666f72206e6f6e657869737460208301527f656e7420746f6b656e00000000000000000000000000000000000000000000006040830152606082019050919050565b6000601982527f446174657320617265206e6f7420636f6e73697374656e7421000000000000006020830152604082019050919050565b6000602082527f4552433732313a206d696e7420746f20746865207a65726f20616464726573736020830152604082019050919050565b6000602c82527f4552433732313a20617070726f76656420717565727920666f72206e6f6e657860208301527f697374656e7420746f6b656e00000000000000000000000000000000000000006040830152606082019050919050565b6000602982527f4552433732313a207472616e73666572206f6620746f6b656e2074686174206960208301527f73206e6f74206f776e00000000000000000000000000000000000000000000006040830152606082019050919050565b6000602f82527f4552433732314d657461646174613a2055524920717565727920666f72206e6f60208301527f6e6578697374656e7420746f6b656e00000000000000000000000000000000006040830152606082019050919050565b6000601282527f54726176656c20494420696e76616c69642e00000000000000000000000000006020830152604082019050919050565b6000602182527f4552433732313a20617070726f76616c20746f2063757272656e74206f776e6560208301527f72000000000000000000000000000000000000000000000000000000000000006040830152606082019050919050565b6000603182527f4552433732313a207472616e736665722063616c6c6572206973206e6f74206f60208301527f776e6572206e6f7220617070726f7665640000000000000000000000000000006040830152606082019050919050565b6000602c82527f455243373231456e756d657261626c653a20676c6f62616c20696e646578206f60208301527f7574206f6620626f756e647300000000000000000000000000000000000000006040830152606082019050919050565b6000601e82527f476976656e2061646472657373206973206e6f7420617070726f7665642100006020830152604082019050919050565b6000602782527f55736572206e6f7420617574686f72697a656420746f2076696577207065726d60208301527f697420696e666f000000000000000000000000000000000000000000000000006040830152606082019050919050565b6000602a82527f55736572206e6f7420617574686f72697a656420746f20636865636b2070657260208301527f6d697420737461747573000000000000000000000000000000000000000000006040830152606082019050919050565b6000602582527f5065726d69742074696d65206d75737420626520626967676572207468616e2060208301527f7a65726f210000000000000000000000000000000000000000000000000000006040830152606082019050919050565b600060e0830160008301516133d36000860182612b16565b50602083015184820360208601526133eb8282612ba0565b915050604083015184820360408601526134058282612ba0565b915050606083015161341a606086018261345e565b50608083015161342d608086018261345e565b5060a083015161344060a0860182612b25565b5060c083015161345360c086018261345e565b508091505092915050565b613467816139dc565b82525050565b60006020820190506134826000830184612b16565b92915050565b600060808201905061349d6000830187612b07565b6134aa6020830186612b16565b6134b7604083018561345e565b81810360608301526134c98184612b34565b905095945050505050565b600060a0820190506134e96000830188612b16565b81810360208301526134fb8187612b6a565b9050818103604083015261350f8186612b6a565b905061351e606083018561345e565b61352b608083018461345e565b9695505050505050565b600060208201905061354a6000830184612b25565b92915050565b6000602082019050818103600083015261356a8184612b6a565b905092915050565b6000602082019050818103600083015261358b81612bd6565b9050919050565b600060208201905081810360008301526135ab81612c33565b9050919050565b600060208201905081810360008301526135cb81612c6a565b9050919050565b600060208201905081810360008301526135eb81612cc7565b9050919050565b6000602082019050818103600083015261360b81612cfe565b9050919050565b6000602082019050818103600083015261362b81612d5b565b9050919050565b6000602082019050818103600083015261364b81612d92565b9050919050565b6000602082019050818103600083015261366b81612dc9565b9050919050565b6000602082019050818103600083015261368b81612e26565b9050919050565b600060208201905081810360008301526136ab81612e83565b9050919050565b600060208201905081810360008301526136cb81612ee0565b9050919050565b600060208201905081810360008301526136eb81612f3d565b9050919050565b6000602082019050818103600083015261370b81612f9a565b9050919050565b6000602082019050818103600083015261372b81612fd1565b9050919050565b6000602082019050818103600083015261374b81613008565b9050919050565b6000602082019050818103600083015261376b81613065565b9050919050565b6000602082019050818103600083015261378b816130c2565b9050919050565b600060208201905081810360008301526137ab8161311f565b9050919050565b600060208201905081810360008301526137cb81613156565b9050919050565b600060208201905081810360008301526137eb816131b3565b9050919050565b6000602082019050818103600083015261380b81613210565b9050919050565b6000602082019050818103600083015261382b8161326d565b9050919050565b6000602082019050818103600083015261384b816132a4565b9050919050565b6000602082019050818103600083015261386b81613301565b9050919050565b6000602082019050818103600083015261388b8161335e565b9050919050565b600060208201905081810360008301526138ac81846133bb565b905092915050565b60006020820190506138c9600083018461345e565b92915050565b60006040820190506138e4600083018561345e565b6138f16020830184612b07565b9392505050565b6000604051905081810181811067ffffffffffffffff8211171561391b57600080fd5b8060405250919050565b600067ffffffffffffffff82111561393c57600080fd5b601f19601f8301169050602081019050919050565b600067ffffffffffffffff82111561396857600080fd5b601f19601f8301169050602081019050919050565b600081519050919050565b600081519050919050565b600081519050919050565b60006139a9826139bc565b9050919050565b60008115159050919050565b600073ffffffffffffffffffffffffffffffffffffffff82169050919050565b6000819050919050565b60006139f1826139bc565b9050919050565b60008115159050919050565b60007fffffffff0000000000000000000000000000000000000000000000000000000082169050919050565b6000819050919050565b6000613a4582613a4c565b9050919050565b6000613a5782613a5e565b9050919050565b6000613a69826139bc565b9050919050565b82818337600083830152505050565b60005b83811015613a9d578082015181840152602081019050613a82565b83811115613aac576000848401525b50505050565b6000601f19601f830116905091905056fea265627a7a72305820c24e106122b18d0b6248646292e3d04bc385f439b2bd85c449e227269ea3e0a16c6578706572696d656e74616cf50037",
  "source": "pragma solidity >=0.5.0 <=0.6.0;\npragma experimental ABIEncoderV2;\n\nimport \"./ERC721Full.sol\";\n\ncontract travelPermit is ERC721Full {\n    uint travelCount = 0;\n\n    struct Travel{\n        address addr;\n        string from;\n        string to;\n        uint256 startTime;\n        uint256 endTime;\n        bool isApproved;\n        uint256 approveTime;\n    }\n\n    struct Person{\n        string fName;\n        string lName;\n        uint256 citizenshipNumber;\n        \n    }\n    \n    modifier onlyAdmin(){\n        require(isAdmin[msg.sender]);\n        _;\n    }\n    \n    event travelRequest(address _addr,string origin, string to, uint start,uint end);\n    event travelAccepted(uint travelId, address authorizationAddr);\n    \n    mapping(uint => Travel) private travels;\n    \n    mapping(address => uint[]) private userTravelPermits;\n    mapping(address => uint) private userTravelCount;\n    \n    \n    mapping(address => bool) private isAdmin;\n    mapping(address => bool) private isMaintainer;\n    \n    constructor() ERC721Full(\"Travel\", \"TRVL\") public{\n        isAdmin[0x2d0DdC5f5072573FABf0Ae078A4f933e401aC054] = true;\n    }\n    \n    function requestPermission(address _addr, string memory from, string memory to, uint256 startTime,uint256 endTime) public{\n        require( _addr == msg.sender || isApprovedForAll(_addr,msg.sender), \"Given address is not approved!\");\n        require(startTime >= 0 && endTime >= 0, \"Permit time must be bigger than zero!\");\n        require(startTime < endTime, \"Dates are not consistent!\");\n        \n        travels[travelCount] = Travel(_addr,from,to,startTime,endTime,false,0);\n        _mint(msg.sender,travelCount);\n        userTravelPermits[_addr].push(travelCount);\n        userTravelCount[_addr]++;\n        \n        travelCount++;\n        emit travelRequest(_addr,from,to,startTime,endTime);\n    }\n    \n    function guardianApproval(address _addr,bool approved) public {\n        require(msg.sender != _addr);\n        setApprovalForAll(_addr, approved);\n    }\n    \n    function approveTravel(uint id) public onlyAdmin{\n        travels[id].isApproved = true;\n        travels[id].approveTime = block.timestamp;\n        \n        emit travelAccepted(id,msg.sender);\n    }\n    \n    /*function userTravelExists(uint id, address _addr) private view returns(bool){\n        for( uint i = 0 ; i < userTravelCount[_addr]; i++){\n            if( userTravelPermits[_addr][i] == id){\n                return true;\n            }\n        }\n        return false;\n    }*/\n    \n    function checkApproval(uint _id) public view returns(bool){\n        require(_id <= travelCount, \"Travel ID invalid.\");\n        require(isMaintainer[msg.sender] || travels[_id].addr == msg.sender, \"User not authorized to check approval status\");\n        \n        return travels[_id].isApproved;\n    }\n    \n    function checkPermit(uint _id) public view returns(bool){\n        require(_id <= travelCount, \"Travel ID invalid.\");\n        require(isMaintainer[msg.sender] || travels[_id].addr == msg.sender, \"User not authorized to check permit status\");\n        \n        require(travels[_id].startTime <= block.timestamp && block.timestamp <= travels[_id].endTime, \"Travel permit out of date!\");\n        \n        return travels[_id].isApproved;\n    }\n    \n    function permitInfo(uint _id) public view returns(Travel memory){\n        require(_id <= travelCount, \"Travel ID invalid.\");\n        require(isMaintainer[msg.sender] || travels[_id].addr == msg.sender, \"User not authorized to view permit info\");\n        return travels[_id];\n    }\n    \n    \n    \n    \n\n}",
  "sourcePath": "/Users/amet/Downloads/starter_kit-master/src/contracts/travelPermit.sol",
  "compiler": {
    "name": "solc",
    "version": "0.5.0+commit.1d4f565a.Emscripten.clang"
  },
  "schemaVersion": "3.3.3",
  "updatedAt": "2021-02-09T06:52:38.797Z",
  "devdoc": {
    "methods": {
      "approve(address,uint256)": {
        "details": "Approves another address to transfer the given token ID The zero address indicates there is no approved address. There can only be one approved address per token at a given time. Can only be called by the token owner or an approved operator.",
        "params": {
          "to": "address to be approved for the given token ID",
          "tokenId": "uint256 ID of the token to be approved"
        }
      },
      "balanceOf(address)": {
        "details": "Gets the balance of the specified address.",
        "params": {
          "owner": "address to query the balance of"
        },
        "return": "uint256 representing the amount owned by the passed address"
      },
      "getApproved(uint256)": {
        "details": "Gets the approved address for a token ID, or zero if no address set Reverts if the token ID does not exist.",
        "params": {
          "tokenId": "uint256 ID of the token to query the approval of"
        },
        "return": "address currently approved for the given token ID"
      },
      "isApprovedForAll(address,address)": {
        "details": "Tells whether an operator is approved by a given owner.",
        "params": {
          "operator": "operator address which you want to query the approval of",
          "owner": "owner address which you want to query the approval of"
        },
        "return": "bool whether the given operator is approved by the given owner"
      },
      "name()": {
        "details": "Gets the token name.",
        "return": "string representing the token name"
      },
      "ownerOf(uint256)": {
        "details": "Gets the owner of the specified token ID.",
        "params": {
          "tokenId": "uint256 ID of the token to query the owner of"
        },
        "return": "address currently marked as the owner of the given token ID"
      },
      "safeTransferFrom(address,address,uint256)": {
        "details": "Safely transfers the ownership of a given token ID to another address If the target address is a contract, it must implement `onERC721Received`, which is called upon a safe transfer, and return the magic value `bytes4(keccak256(\"onERC721Received(address,address,uint256,bytes)\"))`; otherwise, the transfer is reverted. Requires the msg.sender to be the owner, approved, or operator",
        "params": {
          "from": "current owner of the token",
          "to": "address to receive the ownership of the given token ID",
          "tokenId": "uint256 ID of the token to be transferred"
        }
      },
      "safeTransferFrom(address,address,uint256,bytes)": {
        "details": "Safely transfers the ownership of a given token ID to another address If the target address is a contract, it must implement `onERC721Received`, which is called upon a safe transfer, and return the magic value `bytes4(keccak256(\"onERC721Received(address,address,uint256,bytes)\"))`; otherwise, the transfer is reverted. Requires the msg.sender to be the owner, approved, or operator",
        "params": {
          "_data": "bytes data to send along with a safe transfer check",
          "from": "current owner of the token",
          "to": "address to receive the ownership of the given token ID",
          "tokenId": "uint256 ID of the token to be transferred"
        }
      },
      "setApprovalForAll(address,bool)": {
        "details": "Sets or unsets the approval of a given operator An operator is allowed to transfer all tokens of the sender on their behalf.",
        "params": {
          "approved": "representing the status of the approval to be set",
          "to": "operator address to set the approval"
        }
      },
      "supportsInterface(bytes4)": {
        "details": "See `IERC165.supportsInterface`.     * Time complexity O(1), guaranteed to always use less than 30 000 gas."
      },
      "symbol()": {
        "details": "Gets the token symbol.",
        "return": "string representing the token symbol"
      },
      "tokenByIndex(uint256)": {
        "details": "Gets the token ID at a given index of all the tokens in this contract Reverts if the index is greater or equal to the total number of tokens.",
        "params": {
          "index": "uint256 representing the index to be accessed of the tokens list"
        },
        "return": "uint256 token ID at the given index of the tokens list"
      },
      "tokenOfOwnerByIndex(address,uint256)": {
        "details": "Gets the token ID at a given index of the tokens list of the requested owner.",
        "params": {
          "index": "uint256 representing the index to be accessed of the requested tokens list",
          "owner": "address owning the tokens list to be accessed"
        },
        "return": "uint256 token ID at the given index of the tokens list owned by the requested address"
      },
      "tokenURI(uint256)": {
        "details": "Returns an URI for a given token ID. Throws if the token ID does not exist. May return an empty string.",
        "params": {
          "tokenId": "uint256 ID of the token to query"
        }
      },
      "totalSupply()": {
        "details": "Gets the total amount of tokens stored by the contract.",
        "return": "uint256 representing the total amount of tokens"
      },
      "transferFrom(address,address,uint256)": {
        "details": "Transfers the ownership of a given token ID to another address. Usage of this method is discouraged, use `safeTransferFrom` whenever possible. Requires the msg.sender to be the owner, approved, or operator.",
        "params": {
          "from": "current owner of the token",
          "to": "address to receive the ownership of the given token ID",
          "tokenId": "uint256 ID of the token to be transferred"
        }
      }
    }
  },
  "userdoc": {
    "methods": {}
  }
}